:020000040800F2
:100000000000022055690008E5610008E76100086A
:10001000E9610008EB610008ED61000800000000E4
:10002000000000000000000000000000EF61000878
:10003000F161000800000000F3610008F5610008AC
:10004000A5690008A5690008A5690008A569000858
:10005000A5690008A5690008A5690008A569000848
:10006000A5690008A5690008A5690008A569000838
:10007000A5690008A5690008A5690008A569000828
:10008000FD610008A5690008A5690008A5690008C8
:10009000A5690008A5690008A5690008A569000808
:1000A000A5690008A5690008A5690008A5690008F8
:1000B0000D620008A5690008A5690008A569000887
:1000C000A5690008A5690008A5690008A5690008D8
:1000D000A5690008A5690008A5690008A5690008C8
:1000E000A5690008A5690008A5690008A5690008B8
:1000F000A5690008A5690008A5690008A5690008A8
:10010000A5690008A5690008A5690008A569000897
:10011000A5690008A5690008A5690008A569000887
:1001200011620008A5690008A5690008A569000812
:10013000A5690008A5690008A5690008A569000867
:10014000A5690008A5690008A569000821620008E2
:10015000A5690008A5690008A5690008A569000847
:10016000A5690008A5690008A5690008A569000837
:10017000A5690008A5690008A5690008000000003D
:08018000A5690008A56900084B
:1001900010B5054C237833B9044B13B10448AFF3C1
:1001A00000800123237010BD8C010020000000009E
:1001B0004C72000808B5034B1BB103490348AFF369
:1001C000008008BD00000000900100204C72000873
:1001D00053B94AB9002908BF00281CBF4FF0FF31AE
:1001E0004FF0FF3000F072B9ADF1080C6DE904CEAC
:1001F00000F006F8DDF804E0DDE9022304B0704702
:100200002DE9F047089E04468846002B4BD18A42D0
:10021000154667D9B2FA82F24AB1C2F1200701FA53
:1002200002F320FA07F7954047EA030894404FEAA3
:10023000154E230CB8FBFEF71FFA85FC0EFB178842
:1002400043EA084307FB0CF1994209D9EB1807F17F
:10025000FF3080F01B81994240F21881023F2B440D
:100260005B1AA4B2B3FBFEF00EFB103344EA034466
:1002700000FB0CFCA44509D92C1900F1FF3380F0D8
:100280000781A44540F2048102382C4440EA07402B
:10029000A4EB0C0400271EB1D4400023C6E90043A0
:1002A0003946BDE8F0878B4209D9002E00F0EB807B
:1002B0000027C6E9000138463946BDE8F087B3FAA1
:1002C00083F7002F47D18B4202D3824200F2FA809B
:1002D000841A61EB030301209846002EE0D0C6E9A2
:1002E0000048DDE702B9FFDEB2FA82F2002A40F0F0
:1002F0008F80491B4FEA154E1FFA85F80127B1FB85
:10030000FEFC230C0EFB1C1143EA014308FB0CF11D
:10031000994207D9EB180CF1FF3002D2994200F252
:10032000CD808446591AA3B2B1FBFEF00EFB101427
:1003300043EA044408FB00F8A04507D92C1900F152
:10034000FF3302D2A04500F2B6801846A4EB0804A1
:1003500040EA0C409FE7C7F1200CBB4022FA0CFE9C
:100360004EEA030E01FA07F420FA0CF521FA0CF319
:100370004FEA1E482543B3FBF8F92C0C08FB193350
:100380001FFA8EFA44EA034309FB0AF49C4202FA7C
:1003900007F200FA07F10BD91EEB030309F1FF3056
:1003A00080F087809C4240F28480A9F10209734466
:1003B0001B1BADB2B3FBF8F008FB103345EA034456
:1003C00000FB0AFAA24508D91EEB040400F1FF3332
:1003D0006BD2A24569D90238744440EA0940A0FBB7
:1003E0000289A4EB0A044C45C2464B4654D351D073
:1003F000002E69D0B1EB0A0564EB030404FA0CFC8F
:10040000FD40FC404CEA0505C6E90054002747E7DB
:10041000C2F1200320FA03F7954001FA02F021FA15
:1004200003F34FEA154E3843010CB3FBFEF71FFAF6
:1004300085F80EFB173341EA034107FB08F38B42B3
:1004400004FA02F407D9691807F1FF3C2FD28B4256
:100450002DD9023F2944CB1A81B2B3FBFEF00EFB2B
:10046000103341EA034100FB08F38B4207D96918B6
:1004700000F1FF3C17D28B4215D902382944C91A22
:1004800040EA07473BE73746304609E70746E7E6D5
:100490001846FBE64145ABD2B8EB020A69EB0E0207
:1004A00001381346A4E76046E9E7184695E7674632
:1004B000D1E781467CE702382C4447E7ACF1020CD7
:1004C0002B442FE7384608E73746E9E6704700BF78
:1004D000034613F8012B002AFBD1181A0138704784
:1004E00001F0FF01102A2BDB10F0070F08D010F8E5
:1004F000013B013A8B422DD010F0070F42B3F6D1E9
:10050000F0B441EA012141EA014122F007047FF001
:1005100000070023F0E80256083C85EA010586EA58
:10052000010685FA47F5A3FA87F586FA47F6A5FA94
:1005300087F68EB9EED1F0BC01F0FF0102F00702A0
:1005400032B110F8013B013A83EA010313B1F8D14B
:100550000020704701387047002D06BF354603382C
:10056000073815F0010F07D1013015F4807F02BF65
:10057000013015F4C03F0130F0BC0138704700BFB6
:1005800010B504460E4B18784FF47A73B3FBF0F3B2
:100590000C4A1068B0FBF3F000F044FB68B90F2C74
:1005A00001D901200AE0002221464FF0FF3000F07F
:1005B000F7FA034B5C60002000E0012010BD00BF93
:1005C000000000202401002008B50B4B1A6842F4FB
:1005D00000721A601A6842F480621A601A6842F463
:1005E00080721A60032000F0C9FA0020FFF7C8FFEC
:1005F00005F0D8FD002008BD003C0240034A116808
:10060000034B1B780B441360704700BF1802002097
:1006100000000020014B1868704700BF180200203E
:1006200038B50446FFF7F6FF0546B4F1FF3F02D0A8
:10063000044B1B781C44FFF7EDFF401BA042FAD38C
:1006400038BD00BF000000204A4B5A6822F44032F7
:100650005A605A6841680A435A600268536823F432
:100660008073536002685368016943EA0123536051
:100670000268536823F040735360026853688168CE
:100680000B4353600268936823F40063936002682D
:100690009368C1680B439360826A374B9A424BD090
:1006A0000268936823F07063936002689368816ABC
:1006B0000B4393600268936823F040539360026891
:1006C0009368C16A0B4393600268936823F0020346
:1006D000936002689368017E43EA4103936090F857
:1006E0002030002B33D10268536823F40063536039
:1006F0000268D36A23F47003D3620168CB6AC269CB
:10070000013A43EA0253CB620268936823F4007310
:1007100093600268936890F8301043EA4123936035
:100720000268936823F48063936002689368416968
:1007300043EA8123936070470268936823F07063F3
:1007400093600268936823F040539360BCE70268AB
:10075000536843F4006353600268536823F46043B2
:10076000536001684B68426A013A43EA42334B6086
:10077000BEE700BF002301400100000F38B310B5F1
:100780000446036C43B1236C13F0100F0BD001200F
:10079000002384F83C3010BD05F05AF80023636450
:1007A00084F83C30EFE7236C23F4885323F00203F2
:1007B00043F0020323642046FFF746FF00206064F5
:1007C000236C23F0030343F001032364E0E70120DB
:1007D0007047000030B583B00023019390F83C309F
:1007E000012B00F09B80012380F83C300468A36853
:1007F00013F0010F13D1A36843F00103A3604D4B25
:100800001C684D4BA3FB0434A40C04EB440401947A
:1008100002E0019C013C0194019C002CF9D1036889
:100820009C6814F0010F7BD0046C24F4E06424F085
:10083000010444F4807404645B6813F4806F05D091
:10084000036C23F4405343F480530364036C13F4A8
:10085000805F38D0436C23F006034364134604469C
:10086000002280F83C20826B3448D063A26B34486D
:100870001064A26B3348D06422686FF022001060CD
:100880002568686840F0806068602568A86840F462
:100890008070A86020680A4600F14C01A06B00F04F
:1008A0003FFB294B5B6813F01F0F27D12368274AB2
:1008B000934219D002F58072934207D0244A9342A2
:1008C0000BD000202DE000234364C7E702F500723F
:1008D000526812F01F0F07D0F0E702F580725268DD
:1008E00002F01F020F2A1ED89A6812F0405F1CD136
:1008F0009A6842F080429A60002012E02368134A0E
:10090000934201D000200CE09A6812F0405F0ED1B3
:100910009A6842F080429A60002002E0022000E0E3
:10092000002003B030BD0020FBE70020F9E70020E5
:10093000F7E700BF2401002083DE1B437B0900088A
:100940005909000865090008002301400020014002
:10095000002201407047704708B5806BFFF7FBFF2E
:1009600008BD704708B5806B40230364436C43F0B7
:1009700004034364FFF7F5FF08BD08B5836B1A6CE9
:1009800012F0500F26D11A6C42F400721A641A68E1
:10099000916811F0405F19D1197EB9B9D16A11F48B
:1009A000700F03D0916811F4806F0FD1516821F05E
:1009B000200151601A6C22F480721A641A6C12F4CD
:1009C000805F03D11A6C42F001021A641846FFF7E7
:1009D000C1FF08BD1A6C12F0100F03D19B6BDB6CCA
:1009E0009847F6E71846FFF7BCFFF2E730B482B04D
:1009F0000023019390F83C30012B00F0B7800123D5
:100A000080F83C300B68092B3ED90568EA689BB238
:100A100003EB43031E3B072404FA03F322EA030318
:100A2000EB600568EA688C680B8803EB43031E3BA8
:100A300004FA03F31343EB604B68062B3AD80568BE
:100A40006A6B03EB8303053B1F2404FA03F322EADA
:100A500003036B6305686A6B4B6803EB8303053B19
:100A60000C8804FA03F313436B630268404B9A4209
:100A700050D002683E4B9A4255D0002380F83C305B
:100A8000184602B030BC704705682A699BB203EB78
:100A90004303072404FA03F322EA03032B610568E6
:100AA0002A698C680B8803EB430304FA03F31343AE
:100AB0002B61C1E70C2B16D805682A6B03EB830367
:100AC000233B1F2404FA03F322EA03032B63056884
:100AD0002A6B4B6803EB8303233B0C8804FA03F374
:100AE00013432B63C1E70568EA6A03EB8303413BC9
:100AF0001F2404FA03F322EA0303EB620568EA6A9F
:100B00004B6803EB8303413B0C8804FA03F3134364
:100B1000EB62AAE70B68122BABD1164A536843F479
:100B200080035360A5E70B68103B012BA5D8114A41
:100B3000536843F4000353600B68102B9DD10E4B98
:100B40001B6802F1467202F52E3202F28332A2FBDA
:100B500003239B0C03EB83035A00019202E0019BE9
:100B6000013B0193019B002BF9D186E7022088E726
:100B7000002001400023014024010020074AD368DF
:100B800023F4E0631B041B0C000200F4E060184334
:100B900040F0BF6040F40030D060704700ED00E0EE
:100BA00030B4174BDB68C3F30223C3F10704042CF2
:100BB00028BF04241D1D062D18D9033B4FF0FF3517
:100BC00005FA04F421EA0401994005FA03F322EA44
:100BD0000303194300280BDB0901C9B200F160408F
:100BE00000F5614080F8001330BC70470023E5E752
:100BF00000F00F000901C9B2024B1954F4E700BF1D
:100C000000ED00E014ED00E0002807DB00F01F021B
:100C1000400901239340024A42F82030704700BF48
:100C200000E100E00138B0F1807F0AD2064B586045
:100C3000064AF02182F823100020986007221A60EB
:100C400070470120704700BF10E000E000ED00E0B9
:100C500070B110B50446037933B10223237100202B
:100C600020610123237110BD437104F077FEF4E786
:100C7000012070474379012B31D010B40123437117
:100C800002220271046822688B4013432360B1B9C9
:100C900002681168136803F0380311F0040F01D0E3
:100CA000382B07D0012303710023437118465DF8E8
:100CB000044B7047536843F001035360F2E7026846
:100CC0001168136803F4601311F4802FEAD0B3F5B0
:100CD000601FE7D1536843F002035360E2E702204C
:100CE00070474379012B1FD070B401254571022351
:100CF00003710668336840F6FE74944023EA0404E6
:100D00000B6849680B4393402343336004682368AE
:100D1000C02101FA02F223EA0202226005710023D7
:100D20004371184670BC70470220704710B483B0FE
:100D3000002401940068019051B101990A441432D1
:100D40000192019A1360002003B05DF8044B7047D4
:100D500001990A4408320192F3E730B405682C681F
:100D600024F480242C60046863608368402B05D0E1
:100D7000036899600368DA6030BC704703689A6062
:100D80000368D960F8E700000268D3B2103B0B4952
:100D9000A1FB03131B090A49C95CC165032B06D8D3
:100DA00022F47F7222F003028265806D704722F484
:100DB0007F7222F0030204328265F6E7ABAAAAAA88
:100DC00064720008836A826992B9012B0AD01BB150
:100DD000022B01D000207047C36A13F0807F2CD112
:100DE00000207047C36AB3F1C07F28D0002070474D
:100DF000B2F5005F05D0022B29D9032B15D00020B6
:100E00007047032B03D8DFE803F01C041C0A002002
:100E10007047C36A13F0807F15D100207047C36A02
:100E2000B3F1C07F11D000207047C36A13F0807FF8
:100E300001D0012070470020704701207047012039
:100E40007047012070470120704701207047012042
:100E50007047000070B50446FFF7DCFB002C5BD048
:100E60000546002384F83430022384F835302268A4
:100E7000136823F00103136023681A6812F0010F4E
:100E80000AD0FFF7C7FB401B0528F5D9202363656F
:100E9000032084F8350070BD1A682048104061684E
:100EA000A2680A43E1680A4321690A4361690A4367
:100EB000A1690A43E1690A43216A0A430243616A5C
:100EC00004291ED01A602668756925F00705636A33
:100ED0001D43042B07D1A36A1D43E36A1BB12046BF
:100EE000FFF770FF90B975612046FFF74DFFE26D87
:100EF0003F239340836000206065012384F83530F0
:100F0000C9E7E16A206B01430A43DBE740236365DD
:100F1000012084F83500BEE70120BCE73F8010F0D7
:100F200038B5856D90F83440012C2CD0012480F820
:100F3000344090F83540E4B2012C04D0002380F80E
:100F40003430022038BD0446022084F835000020E9
:100F500060652046FFF701FFE26D3F239340AB60E1
:100F60002268136843F016031360236C23B12268D0
:100F7000136843F0080313602268136843F0010309
:100F800013600020DEE70220DCE70000F0B583B04C
:100F9000044600230193724B1D68724BA3FB053579
:100FA000AD0A876D3E68C26D08239340334210D06E
:100FB00003681A6812F0040F0BD01A6822F00402BA
:100FC0001A60C26D08239340BB60436D43F0010378
:100FD0004365E26D01239340334209D02268526990
:100FE00012F0800F04D0BB60636D43F002036365B1
:100FF000E26D04239340334209D02268126812F054
:10100000020F04D0BB60636D43F004036365E26DBF
:1010100010239340334224D02268126812F0080F44
:101020001FD0BB6023681A6812F4802F0DD01B6894
:1010300013F4002F04D1236C9BB12046984710E095
:10104000A36C73B1204698470BE01A6812F4807FB6
:1010500003D11A6822F008021A60236C0BB12046F3
:101060009847E26D20239340334255D0226812689E
:1010700012F0100F50D0BB6094F83530DBB2052B66
:101080000ED023681A6812F4802F33D01B6813F433
:10109000002F2AD1636C002B3ED0204698473BE0BE
:1010A0002268136823F0160313602268536923F043
:1010B00080035361236CA3B12268136823F00803F3
:1010C0001360E26D3F239340BB60002384F834300B
:1010D000012384F83530236D002B3FD020469847FC
:1010E0003CE0A36C002BE7D1EBE7E36BA3B1204618
:1010F000984711E01A6812F4807F09D11A6822F02B
:1011000010021A60002384F83430012384F835304B
:10111000E36B0BB120469847636DFBB1636D13F031
:10112000010F17D0052384F835302268136823F0A7
:1011300001031360019B01330193AB4204D8236880
:101140001B6813F0010FF5D1002384F8343001231C
:1011500084F83530E36C0BB12046984703B0F0BDFE
:1011600024010020B5814E1B00230F2B00F2D780F5
:10117000F0B583B039E0072200E00022AA403A43EC
:101180000234674D45F82420664A1468F24302EAA7
:1011900004054F6817F4803F01D046EA0405614C0E
:1011A0002560646802EA04054F6817F4003F01D027
:1011B00046EA04055B4C6560A46802EA04054F68D2
:1011C00017F4801F01D046EA0405564CA560E46878
:1011D00022404D6815F4001F01D046EA0402514C2C
:1011E000E26001330F2B00F2988001229A400C68D4
:1011F00004EA0206B242F4D14C68651E012D03D9FF
:10120000112C01D0122C12D185685F000324BC4040
:1012100025EA0405CC68BC402C438460456825EA77
:1012200002054C68C4F300129A402A434260C46825
:101230005F000322BA40D24314408D68BD4025436D
:10124000C5604C68022C01D0122C13D1DD08083582
:1012500050F825E003F007044FEA840C0F2404FA49
:101260000CF42EEA040E0C6904FA0CF444EA0E04A1
:1012700040F82540046822404C6804F00304BC4058
:10128000224302604A6812F0805FAAD000220192D5
:10129000254A546C44F480445464526C02F48042F5
:1012A0000192019A9C08A51C1D4A52F8257003F072
:1012B000030295000F22AA4027EA02071B4A904228
:1012C0003FF45BAF02F5806290421AD002F5806273
:1012D000904218D002F58062904216D002F58062EA
:1012E000904214D002F58062904212D002F58062E2
:1012F000904210D002F5806290423FF43CAF082249
:101300003CE701223AE7022238E7032236E70422CB
:1013100034E7052232E7062230E703B0F0BD70471C
:1013200000380140003C014000380240000002400B
:1013300012B909048161704781617047F8B5066888
:10134000346A04F00F07C4F34343C4F30A14022BB6
:101350002ED16CB307EB8702D3000344596C39B329
:1013600005462246304602F0ABFEBA003A44D300AE
:101370002B445A6C22445A64DA6C2244DA6406EB39
:101380004713D3F810150B4A0A408AB1D3F8002549
:1013900022F0804242F00042C3F80025BB00D91978
:1013A000CA002A4492F8503083F0010382F850308A
:1013B000F8BD00BF0000F81FF0B585B09DF82850BB
:1013C0009DF82C60BDF8307090F8B842012C41D0E7
:1013D000012480F8B8424FEA810C8C444FEACC04D7
:1013E00004444FF0000C84F83DC084F83830A4F871
:1013F000407084F8391084F83F6002F07F0C84F864
:101400003AC012F0800F1BD101EB810C4FEACC04E3
:1014100004444FF0000C84F83BC0044601EB810CFF
:101420004FEACC00204480F83C500297019600958A
:10143000206802F051FF002384F8B83205B0F0BDF7
:1014400001EB810C4FEACC0404444FF0010C84F80A
:101450003BC0E2E70220F1E790F8B832012B0BD055
:1014600010B50446012380F8B832006802F0BDFFD1
:10147000002084F8B80210BD02207047002845D033
:10148000F0B58BB00646046890F8B932002B38D01E
:10149000032386F8B932E36B13F4807F01D1002374
:1014A0003361306802F0B3FD344654F810CB6D461A
:1014B0000FCC0FC50FCC0FC594E8030085E80300DF
:1014C000371D97E80E00604602F056FD0121306896
:1014D00002F0A3FD344654F810CB6D460FCC0FC577
:1014E0000FCC0FC594E8030085E8030097E80E00D1
:1014F000604602F063FE012386F8B93200200BB08B
:10150000F0BD80F8B83204F0A5FFC1E701207047B4
:10151000F8B59DF81870BDF820608D000D44EC0002
:10152000044484F83B2084F83F308FB98D000D448B
:10153000EC000444032584F842509DF8245084F8BC
:101540003D50032B00F29680DFE803F00A8D2F5EFA
:1015500001EB8105EC000444022584F84250F0E7D9
:10156000012F40F08780002A40F0848036B901EBDB
:101570008102D3000344012283F8512001EB810250
:10158000D300034493F851303BB901EB8102D300FF
:101590000344002283F842206CE001EB8102D30077
:1015A0000344022283F8422064E0B2B901EB8102D5
:1015B000D300034493F851303BB901EB8102D300CF
:1015C0000344002283F8422054E001EB8102D3005F
:1015D0000344022283F842204CE001EB8102D30055
:1015E000034493F850303BB901EB8102D30003442C
:1015F000002283F842203DE001EB8102D300034446
:10160000022283F8422035E0B2B901EB8102D30017
:10161000034493F851303BB901EB8102D3000344FA
:10162000002283F8422025E001EB8102D30003442D
:10163000022283F842201DE001EB8102D300034423
:1016400093F850303BB901EB8102D30003440022F0
:1016500083F842200EE001EB8102D3000344022212
:1016600083F8422006E001EB8102D300034400220C
:1016700083F842208A005418E3000344079C5C640A
:101680009E64002483F85C40DC6483F8391083F89E
:101690005D401144CB0003F13801027C0144006835
:1016A00002F01EFFF8BD30B583B005460468D4F8DB
:1016B00040340193D4F840340093009B23F02E0370
:1016C0000093019B13F0020F07D0019B13F0010F51
:1016D00025D1009B43F002030093019B13F0080FF8
:1016E00010D0009B43F008030093019B13F0040FFC
:1016F0002DD0AB69022B15D0EB68012B22D02846E8
:1017000004F007FF019B13F0200F03D0009B43F070
:1017100020030093009BC4F8403403B030BD04F0B4
:10172000EBFED6E7019B03F4C023B3F5802F04D072
:101730000121286802F0E0FCE1E70221286802F0BC
:10174000DBFCDCE74EF66022C4F80424D7E7284629
:1017500004F0E5FED6E7F8B506460D46076807EB48
:10176000411707F5A064A36813F0040F40D00423C9
:10177000A360E36843F00203E360A36813F4007F0F
:1017800040F08280A36813F0010F00F0B08033694D
:101790004BB1AA002A44D30033449A6C2169C1F3A7
:1017A0001201521ADA64AA002A44D30033440122F7
:1017B00083F85D2000219965A26093F83F30002BEB
:1017C0006ED0022B6CD0032B7FD0012B72D1AA00DC
:1017D0002A44D3003344012283F85C2093F850104C
:1017E000514083F850102946304604F091FE61E0E4
:1017F000A36813F4807F06D1A36813F0200F14D0E0
:101800002023A360B9E74FF48073A36001EB81024A
:10181000D3000344072283F85D20E36843F002030A
:10182000E360006802F0E1FDA7E7A36813F0080F8A
:1018300017D1A36813F4806F9FD0E36843F00203CD
:10184000E360006802F0D1FD1023A36005EB850280
:10185000D3003344082283F85D204FF48063A360F3
:101860008BE7E36843F00203E36001EB8102D300FE
:101870000344052283F85D201023A3600823A3609E
:10188000006802F0B2FD78E7E36843F00203E3602A
:101890002946306802F0A9FD4FF40073A36013E0FD
:1018A000E36843F00203E3602946306802F09DFDDF
:1018B0001023A360AB005919CA00324492F850308B
:1018C00083F0010382F85030F8BDD7F8003543F0BB
:1018D0000053C7F8003505EB8502D30033440122DD
:1018E00083F85C202946304604F012FEE2E7A36844
:1018F00013F0020F6FD0E36823F00203E36005EBFF
:101900008502D300334493F85D30012B14D0052BAE
:1019100026D0062B2CD0082B2AD0032B4BD0072BFC
:1019200011D1AA002A44D30033449A6D01329A653A
:10193000042283F85C2006E005EB8502D3003344E3
:10194000012283F85C200223A36005EB8502D3000B
:10195000334493F85C202946304604F0D9FDB3E7C0
:1019600005EB8502D3003344052283F85C20EAE7C7
:10197000AA002A44D30033449A6D01329A65032A9F
:1019800011D9AA002A44D300334400229A650422C4
:1019900083F85C20D7F8003523F0804343F0004300
:1019A000C7F80035CFE705EB8502D30033440222A8
:1019B00083F85C20EEE705EB8502D3003344022276
:1019C00083F85C20D7F8003523F0804343F00043D0
:1019D000C7F80035B7E7A36813F0800F1AD1A368E2
:1019E00013F0100F3FF470AF05EB8502D3003344C2
:1019F00093F83F30032B25D00BB1022B07D105EB19
:101A00008502D300334400229A6533694BB3102317
:101A1000A36059E7E36843F00203E360AB005919A0
:101A2000CA003244916D013191652B44DA00324491
:101A3000062382F85D302946306802F0D6FC802308
:101A4000A36041E705EB8502D300334400229A6589
:101A5000E36843F00203E3602946306802F0C5FC06
:101A6000D5E705EB8502D3003344032283F85D20DC
:101A7000E36843F00203E3602946306802F0B5FCF6
:101A8000C5E7F8B5036803EB411303F5A064A2684A
:101A900012F0040F24D10E460546A26812F0200F62
:101AA00025D02023A36001EB8102D3001A46034412
:101AB00093F83D30012B19D18B000244002182F8AC
:101AC0003D103344DA000244022382F85C30E368BC
:101AD00043F00203E3603146006802F086FC05E053
:101AE0000423A360E36843F00203E360F8BDA26847
:101AF00012F0400F34D1A26812F4007F4AD1A268DC
:101B000012F0010F51D1A26812F0080F62D1A26841
:101B100012F0100F6FD08A000A44D3000344002251
:101B20009A65032283F85D2093F83D306BB901EB91
:101B30008102D300034493F83C3033B901EB8102B6
:101B4000D3000344012283F83D20E36843F00203FD
:101B5000E3603146286802F048FC1023A360C5E723
:101B60008B005918CA000244042182F85D1001213B
:101B700082F83D103344DA00024400239365E368A1
:101B800043F00203E3603146006802F02EFC40237C
:101B9000A360ABE7E36843F00203E360006802F090
:101BA00024FC4FF40073A360A0E78F007A18D300E1
:101BB000034400229A65E36843F00203E36000688F
:101BC00002F013FC0123A360B919C800284480F86F
:101BD0005D308BE70823A360E36843F00203E36012
:101BE000006802F002FC06EB8601C80028440523C9
:101BF00080F85D307AE7A26812F0800F39D1A268D0
:101C000012F4806F46D1A26812F0020F3FF46EAF5B
:101C1000E26822F00202E26001EB8101CA00114693
:101C2000024492F85D20012A48D0032A5AD0042A9F
:101C30006CD0052A72D0062A01D0082A59D1B100E9
:101C40003144CA002A44916D0131916503296BD951
:101C5000282202FB065200219165042182F85C10C3
:101C6000D3F8002522F0804242F00042C3F800255C
:101C70003FE0E36843F00203E360006802F0B5FB75
:101C800006EB8601CB002B44062283F85D208023DF
:101C9000A3602BE7E36843F00203E360006802F00F
:101CA000A4FB1023A3604FF48063A36006EB8601BE
:101CB000CB002B44082283F85D2017E70B46034432
:101CC000012283F85C2093F83F30023BDBB2934261
:101CD0000FD80B46034493F8512082F0010283F899
:101CE000512006E006EB8602D3000344022283F86B
:101CF0005C200223A36006EB8602D3002B4493F8FA
:101D00005C203146284604F003FCEFE606EB860231
:101D1000D3000344022283F85C20EAE7282303FB74
:101D2000060383F85C20E4E7282202FB0652022126
:101D300082F85C1094E7F8B504460568284602F07E
:101D4000D7F9012800D0F8BD206802F0CDF90028AD
:101D5000F9D0206802F0C8F910F4001F03D02368FE
:101D60004FF400125A61206802F0BEF910F4801F8F
:101D700003D023684FF480125A61206802F0B4F94E
:101D800010F0806F03D023684FF080625A612068A2
:101D900002F0AAF910F0020F02D0236802225A6161
:101DA000206802F0A1F910F0005F08D023684FF01E
:101DB00000525A61D5F8403413F0010F25D0206845
:101DC00002F092F910F0807F27D1206802F08CF9A0
:101DD00010F0080F25D1206802F086F910F0007F7E
:101DE00026D1206802F080F910F0100FABD02268E5
:101DF000936923F0100393612046FFF79FFA22684E
:101E0000936943F0100393619DE7204604F07AFB49
:101E10000121206802F070F9D1E72046FFF743FC6A
:101E2000D3E7204604F062FB236808225A61D2E718
:101E3000206802F0D5FA0746002604E0F1B22046F9
:101E4000FFF71FFE0136A368B34212D906F00F0355
:101E500027FA03F313F0010FF4D005EB4613D3F880
:101E6000003513F4004FE9D0F1B22046FFF773FCC0
:101E7000E8E723684FF000725A61B2E738B590F88E
:101E8000B832012B0ED00446012580F8B852006804
:101E900002F0B7F82946206802F06DF9002084F8B6
:101EA000B80238BD0220FCE790F8B832012B0BD005
:101EB00010B50446012380F8B832006802F0BCFB7C
:101EC000002084F8B80210BD0220704708B50068F1
:101ED00002F032F908BD01EB8101CB00184490F803
:101EE0005C00704701EB8101CB001844C06C704767
:101EF00008B5006802F0EBF908BD08B5006802F00B
:101F0000DBF908BD03685A6912F4806F11D06FF4D1
:101F100080625A6100230363202280F83D2080F80C
:101F20003E30026C42F00402026480F83C30012032
:101F3000704700207047F8B506460C4617461D4608
:101F400022E0FEF767FB069BC01AA84200D8DDB965
:101F500000233363202286F83D2086F83E30326C21
:101F600042F02002326486F83C3001201AE03368E7
:101F70005B6924EA03039BB2B3FA83F35B099F42D4
:101F80000FD1B5F1FF3FDCD1C4F30743012BEED0F5
:101F900033689B6924EA03039BB2B3FA83F35B09BA
:101FA000EDE70020F8BDF8B504460D4616461F467D
:101FB0003CE01A6842F400721A6023686FF4806291
:101FC0005A6100232363202284F83D2084F83E30A8
:101FD000226C42F00402226484F83C30012033E099
:101FE000FEF718FBC01BB04200D8FEB900232363E4
:101FF000202284F83D2084F83E30226C42F02002FA
:10200000226484F83C3001201EE023685B6925EAE5
:1020100003039BB2003318BF0123A3B123685A699D
:1020200012F4806FC5D1B6F1FF3FD9D1C5F3074394
:10203000012BEAD023689B6925EA03039BB2003396
:1020400018BF0123E9E70020F8BD0000F0B583B018
:1020500004460F4615461E46C36A082B0DD0012BB9
:102060000BD013F5803F08D0036B122B0AD1026806
:10207000136843F48073136004E02268136843F428
:102080008073136000962B4600224FF0011120460A
:10209000FFF751FF58B123681B6813F4807F2BD0E2
:1020A0004FF4007323640323184603B0F0BD236983
:1020B000B3F5804F0ED1236807F0FE071F6133464A
:1020C0002A460F492046FFF76EFF03460028EBD053
:1020D0000123E9E7FB11226803F0060343F0F00354
:1020E000136133462A4607492046FFF75CFF28B9AB
:1020F0002368FFB21F61E2E70323D5E70123D3E79B
:1021000002000100080001002DE9F04184B00446FE
:102110000D4616461F46C26A01680B6843F4806389
:102120000B60082A0DD0012A0BD012F5803F08D091
:10213000036B112B0AD10268136843F48073136098
:1021400004E02268136843F48073136000973346F9
:1021500000224FF001112046FFF7EDFE60B1236829
:102160001B6813F4807F5BD04FF400732364032358
:10217000184604B0BDE8F0812369B3F5804F0FD154
:10218000236845F00105EDB21D613B463246264904
:102190002046FFF708FF03460028E9D00123E7E7C0
:1021A0004FEAE51808F00608236848F0F0021A61C3
:1021B0003B4632461D492046FFF7F5FE08B1012394
:1021C000D6E72368EDB21D613B46324616492046EC
:1021D000FFF7E9FE08B10123CAE700220392236852
:1021E00059690391996903910399196841F48071C0
:1021F0001960009733464FF001112046FFF79BFE10
:1022000048B123681B6813F4807F0BD04FF4007330
:1022100023640323ACE7226848F0F1031361B4E7B9
:102220000323A5E70323A3E7020001000800010040
:1022300070B504460D46164623685B6913F0800F9F
:102240001CD12046FFF75EFED0B9B5F1FF3FF3D0B9
:10225000FEF7E0F9801BA84201D8002DECD1002345
:102260002363202284F83D2084F83E30226C42F023
:102270002002226484F83C30012000E0002070BD80
:102280000120FCE770B504460D46164623685B69DD
:1022900013F0040F1CD12046FFF734FED0B9B5F17E
:1022A000FF3FF3D0FEF7B6F9801BA84201D8002DFE
:1022B000ECD100232363202284F83D2084F83E30B3
:1022C000226C42F02002226484F83C30012000E0BD
:1022D000002070BD0120FCE770B505460C4616468F
:1022E0002B685A6912F0400F29D15A6912F0100F69
:1022F00015D1FEF78FF9801BA04201D8002CEFD139
:1023000000232B63202285F83D2085F83E302A6C7F
:1023100042F020022A6485F83C30012070BD6FF045
:1023200010025A6100232B63202285F83D2085F896
:102330003E302A6C2A6485F83C300120EEE700200C
:10234000ECE70000002800F0C880F8B5044690F8DB
:102350003D30002B75D0242384F83D30226813686B
:1023600023F0010313602268136843F400431360F1
:102370002268136823F40043136001F089F962684E
:10238000584B9A4262D8584B98428CBF0023012385
:10239000002B40F0A480554BA3FB00239B0C21682D
:1023A0004A6822F03F021A434A6025682A6A22F0EE
:1023B0003F0266684B498E424ED8013313432B626D
:1023C0002568E96921F44F4121F0FF016368454A1E
:1023D00093424BD801385B00B0FBF3F30133C3F3F6
:1023E0000B03042B38BF04230B43EB6121680B68FC
:1023F00023F0C003E269206A024313430B602168A3
:102400008B6823F4034323F0FF032269E06802434F
:1024100013438B602168CB6823F0FF036269A069D6
:1024200002431343CB602268136843F00103136037
:1024300000202064202384F83D30206384F83E008F
:10244000F8BD80F83C3003F0D3FB84E7284B98427A
:102450008CBF002301239BE74FF4967101FB03F32C
:102460002449A1FB03139B090133A7E7A268BAB96A
:10247000461E03EB4307B6FBF7F60136C6F30B0621
:10248000B6FA86F6760936BBC2B9013803EB4303C8
:10249000B0FBF3F30133C3F30B0242F40043A3E7B1
:1024A000461E03EB830707EB8707B6FBF7F60136FB
:1024B000C6F30B06B6FA86F67609E4E7013803EBB5
:1024C000830303EB8303B0FBF3F20132C2F30B028D
:1024D00042F4404388E7012386E70120704701204A
:1024E000AEE700BFA08601007F841E0083DE1B4391
:1024F000FF083D00D34D62102DE9F04184B0044641
:102500000E4690461F46FEF785F894F83D30DBB244
:10251000202B04D00226304604B0BDE8F0810546E9
:102520000090192301224F492046FFF704FD00289F
:1025300040F0918094F83C30012B00F08E80012314
:1025400084F83C3023681A6812F0010F03D11A682E
:1025500042F001021A602268136823F400631360DA
:10256000212384F83D30102384F83E300023236477
:10257000C4F824806785638D23853B4BE3622B463B
:102580000A9A31462046FFF761FD0646002866D1CB
:102590000023039323685A6903929B690393039B67
:1025A00012E0236C042B01D00126B4E722681368E3
:1025B00043F4007313600126ADE72A460A992046CA
:1025C000FFF760FE00282CD1238D002B35D02A4642
:1025D0000A992046FFF72CFE0028E2D1626A2368A0
:1025E00012781A61616A4B1C6362638D013B9BB276
:1025F0006385238D013B9BB223852268506910F0CF
:10260000040FDAD0002BD8D04B781361636A013302
:102610006362638D013B9BB26385238D013B238500
:10262000CBE7236C042B01D0012674E722681368E2
:1026300043F40073136001266DE72268136843F4C6
:1026400000731360202384F83D30002384F83E306B
:1026500084F83C305FE702265DE702265BE701264F
:1026600059E700BF020010000000FFFF2DE9F04114
:1026700086B004460E4690461F46FDF7CBFF94F801
:102680003D30DBB2202B04D00226304606B0BDE838
:10269000F08105460090192301229E492046FFF74C
:1026A0004AFC002840F0348194F83C30012B00F0C3
:1026B0003781012384F83C3023681A6812F0010F37
:1026C00003D11A6842F001021A602268136823F4E9
:1026D00000631360222384F83D30102384F83E30D9
:1026E00000232364C4F824806785638D23858A4B87
:1026F000E3622B460C9A31462046FFF705FD06465D
:10270000002840F00F81238D5BB9029323685A693A
:1027100002929A690292029A1A6842F400721A604E
:1027200077E0012B0FD0022B1FD02268136843F4EF
:10273000806313600023059323685A6905929B699F
:102740000593059B65E02268136823F4806313609A
:102750000023039323685A6903929A690392039AA8
:102760001A6842F400721A6053E02268136823F476
:10277000806313602268136843F4006313600023CE
:10278000049323685A6904929B690493049B40E074
:102790002A460C992046FFF79FFD002840F0C48090
:1027A00023681A69636A1A70636A01336362238D4E
:1027B000013B2385638D013B9BB2638529E0009536
:1027C0000C9B002255492046FFF7B5FB002840F03E
:1027D000AD802268136843F40073136023681A699C
:1027E000636A1A70626A531C6362238D013B2385FE
:1027F000638D013B9BB2638523681B695370636AD9
:1028000001336362238D013B2385638D013B9BB2C2
:102810006385238D002B72D0032B49D8012BB7D0B1
:10282000022BCCD000950C9B00223C492046FFF7A0
:1028300082FB00287CD12268136823F48063136034
:1028400023681A69636A1A70636A01336362238DAD
:10285000013B2385638D013B9BB2638500950C9BF7
:1028600000222E492046FFF766FB002862D122682D
:10287000136843F40073136023681A69636A1A705B
:10288000626A531C6362238D013B2385638D013B88
:102890009BB2638523681B695370636A013363626B
:1028A000238D013B2385638D013B9BB26385B0E79C
:1028B0002A460C992046FFF70FFD00283CD12368DB
:1028C0001A69636A1A70626A531C6362238D013B42
:1028D0002385638D013B9BB263852368596911F0A1
:1028E000040F96D01B695370636A01336362238DB2
:1028F000013B2385638D013B9BB2638589E72023E0
:1029000084F83D30002384F83E3084F83C30BCE647
:102910000226BAE6020010000000FFFF04000100DA
:102920000226B2E60126B0E60126AEE60126ACE6B6
:102930000126AAE60126A8E60126A6E6002800F060
:10294000BF8070B5044690F84130002B51D0022270
:1029500084F841202168CB6923F47B6323F00F03C3
:10296000CB6123681A626369934263D0E368002BEA
:1029700046D11025A368202B00D86D00012000F05F
:10298000A7FE2369B3F5007F3CD0B0FBF5F000EB68
:10299000800043006269B3FBF2F30533494AA2FBAE
:1029A0000323DB0803F001029B1A5B081202991E45
:1029B000FD2941D821690A43216813430B6221682C
:1029C000CB6923F47B6323F00F036268A0680243A2
:1029D000E0680243A0690243134343F40063CB6100
:1029E000236A012B2ED000206064012384F841303B
:1029F00070BD80F84030344B436303F04DF9A6E7D7
:102A00002025B7E7E36853B1AD00B0FBF5F000EB6C
:102A1000800043006269B3FBF2F30533BEE7ED00CB
:102A2000B0FBF5F000EB800043006269B3FBF2F30A
:102A30000533B3E70022BAE7636C43F01003636425
:102A40000120D5E7214B63632268214B9A421FD0B6
:102A50004FF04022D36923F47B6323F00F03D3614B
:102A600022681B4B9A4215D04FF0402302221A6273
:102A70002268174B9A4210D04FF04021CA6992B297
:102A80006368B3F5007F0AD0C3B94FF4807608E0DD
:102A9000104ADFE7A3F58063E8E70E49EEE74FF45D
:102AA0008076A068E568238B2B439BB203439BB2DF
:102AB0003343134343F40063CB6194E70026F0E70C
:102AC00001207047CDCCCCCC572C0008892E0008B3
:102AD000003800400034004000295DD010B5002AC5
:102AE0005DD090F84030DBB2012B5BD0012380F841
:102AF000403090F84130DBB2012B10D1032380F835
:102B000041300023436441620368DB6903F007033B
:102B1000032B09D0052B07D00285428508E000234E
:102B200080F8403002233BE0520092B20285428599
:102B30000446836B1C4A1A64836B1C4ADA63836BFA
:102B40001B4ADA640268038D0C32416A806BFEF71F
:102B5000E7F90346A8B92268D16911F4806F03D15F
:102B6000D16941F48061D1612268516811F0020F8E
:102B700003D1516841F002015160002284F84020E5
:102B80000EE0636C43F008036364012384F8413072
:102B9000002284F8402003E00123184670470123F7
:102BA000184610BD0223FBE7B72B0008F92B0008DD
:102BB000272D0008704708B5806BFFF7FBFF08BDA5
:102BC000704708B5426A03681288DA60436A0233C4
:102BD0004362438D013B9BB24385438D9BB203B15E
:102BE00008BD0268536823F0A0035360012380F8F6
:102BF0004130FFF7E5FFF3E708B5836BC2694AB9D7
:102C000019684A6822F002024A6000225A850122AD
:102C100083F841201846FFF7D3FF08BD704708B579
:102C20000368DA68C36A1A80C36A0233C362438ED8
:102C3000013B9BB24386438E9BB203B108BD026841
:102C4000536823F060035360012380F84130FFF79D
:102C5000E5FFF3E7704710B584B004460268936857
:102C6000039390F84130DBB2042B06D094F8413046
:102C7000DBB2032B2CD004B010BD039B13F0010F6B
:102C800003D0536813F0400F1FD1039B13F0400F84
:102C9000ECD023685A6812F0200FE7D05A6822F06F
:102CA00060025A60002301932368DA6801929B68EE
:102CB0000193019B012384F84130636C43F00203CC
:102CC00063642046FFF7C6FFD0E7FFF7A8FFDCE705
:102CD000039B13F0020F04D023685B6813F0800F8E
:102CE0001DD1039B13F0080FC5D023685A6812F05A
:102CF000200FC0D05A6822F0A0025A60002302932D
:102D000023689B680293029B012384F84130636C23
:102D100043F0040363642046FFF79CFFABE72046C3
:102D2000FFF74FFFDDE708B5806B0268536823F0BB
:102D300003035360002343854386012380F8413019
:102D4000436C43F008034364FFF784FF08BD7047FA
:102D500008B5436A9A1C426202681B88D360438D9F
:102D6000013B9BB24385438D9BB23BB902685368DC
:102D700023F0A0035360438E9BB203B108BD01232F
:102D800080F84130FFF7E3FFF8E7000008B502687C
:102D9000144B9A421BD04FF04023DA68C36A991C47
:102DA000C1621A80438E013B9BB24386438E9BB225
:102DB00063B902680B4B9A420CD04FF04022536823
:102DC00023F060035360438D9BB22BB108BDA3F584
:102DD0008063E2E7044AF2E7012380F84130FFF71D
:102DE000B6FFF3E7003800400034004008B5436AFE
:102DF0009A1C42621A880168124B994217D04FF010
:102E00004023DA60438D013B9BB24385438D9BB2E7
:102E100063B902680B4B9A420CD04FF040225368C2
:102E200023F0A0035360438E9BB22BB108BDA3F5E2
:102E30008063E6E7044AF2E7012380F84130FFF7B8
:102E400086FFF3E7003800400034004008B503680F
:102E5000DA68C36A991CC1621A80438E013B9BB237
:102E60004386438E9BB23BB90268536823F06003EC
:102E70005360438D9BB203B108BD012380F84130FC
:102E8000FFF765FFF8E7000010B586B00446036859
:102E90009A680592704A93426FD04FF04022916831
:102EA00004915B680393536802936368B3F5007FF2
:102EB00001D0002B70D1059B13F0020F03D0039BB0
:102EC00013F0800F5CD1049B13F0010F03D0029B21
:102ED00013F0400F58D1049B13F0400F24D0029BF5
:102EE00013F0200F20D022685B4B9A4250D04FF055
:102EF0004022536823F0600353602268536823F034
:102F0000A0035360002300932368DA6800929B6853
:102F10000093009B012384F84130636C43F002036B
:102F200063642046FFF796FE059B13F0080F22D03E
:102F3000039B13F0200F1ED02268536823F0A003D8
:102F400053602268444B9A4224D04FF04022536889
:102F500023F0600353600023019323689B6801936F
:102F6000019B012384F84130636C43F004036364E4
:102F70002046FFF76FFE06B010BDA2F580628EE717
:102F80002046FFF7E5FE9EE72046FFF7FFFEA2E79B
:102F9000324AAEE7314ADAE7049B13F0020F03D05E
:102FA000029B13F0800F4AD1059B13F0010F03D051
:102FB000039B13F0400F46D1059B13F0400F1CD02C
:102FC000039B13F0200F18D02268536823F060038E
:102FD00053602268204B9A4239D04FF04022536808
:102FE00023F0A0035360012384F84130636C43F065
:102FF000020363642046FFF72DFE049B13F0080FC5
:10300000B9D0029B13F0200FB5D02268124B9A4220
:103010001FD04FF04022536823F0A0035360226872
:10302000536823F060035360012384F84130636CDC
:1030300043F0040363642046FFF70CFE9BE7204641
:10304000FFF7D4FEB0E72046FFF700FFB4E7034ADE
:10305000C5E7024ADFE700BF003800400034004007
:10306000002800F0E48170B582B00446036813F0D4
:10307000010F3BD0A74B9B6803F00C03042B2CD013
:10308000A44B9B6803F00C03082B21D06368B3F5B5
:10309000803F4FD0B3F5A02F52D09E4B1A6822F438
:1030A00080321A601A6822F480221A606368002B4A
:1030B00050D0FDF7AFFA0546964B1B6813F4003F5E
:1030C00014D1FDF7A7FA401B6428F5D90320B3E11A
:1030D000904B5B6813F4800FD8D08E4B1B6813F4B1
:1030E000003F03D06368002B00F0A381236813F036
:1030F000020F55D0874B9B6813F00C0F3ED0854BC9
:103100009B6803F00C03082B33D0E368002B68D0D6
:10311000814B01221A60FDF77DFA05467D4B1B6845
:1031200013F0020F54D1FDF775FA401B0228F5D9B0
:10313000032081E1774A136843F480331360B5E7D5
:10314000744B1A6842F480221A601A6842F4803282
:103150001A60ABE7FDF75EFA05466E4B1B6813F489
:10316000003FC3D0FDF756FA401B6428F5D9032071
:1031700062E1684B5B6813F4800FC6D1654B1B6836
:1031800013F0020F04D0E368012B01D0012053E1BA
:10319000604A136823F0F803216943EAC10313600E
:1031A000236813F0080F40D0636963B35B4B0122BF
:1031B0001A60FDF72FFA0546564B5B6F13F0020FAE
:1031C00033D1FDF727FA401B0228F5D9032033E15C
:1031D000504A136823F0F803216943EAC1031360DE
:1031E000DEE74D4B00221A60FDF714FA0546494B05
:1031F0001B6813F0020FD3D0FDF70CFA401B022816
:10320000F5D9032018E1454B00221A60FDF702FAB8
:103210000546404B5B6F13F0020F06D0FDF7FAF93D
:10322000401B0228F5D9032006E1236813F0040FA0
:1032300079D0384B1B6C13F0805F33D1002301939E
:10324000344B1A6C42F080521A641B6C03F08053AA
:103250000193019B0125324B1B6813F4807F23D01F
:10326000A368012B34D0052B38D02A4B1A6F22F0DB
:1032700001021A671A6F22F004021A67A368002B72
:1032800036D0FDF7C7F90646224B1B6F13F0020F2D
:1032900048D1FDF7BFF9801B41F288339842F3D93A
:1032A0000320C9E00025D6E71D4A136843F4807364
:1032B0001360FDF7AFF90646194B1B6813F4807FC6
:1032C000CED1FDF7A7F9801B0228F5D90320B3E082
:1032D000104A136F43F001031367CFE70D4B1A6FCA
:1032E00042F004021A671A6F42F001021A67C5E73A
:1032F000FDF790F90646074B1B6F13F0020F11D034
:10330000FDF788F9801B41F288339842F3D90320F6
:1033100092E000BF0038024000004742800E474262
:1033200000700040EDB9A369002B00F08480454A8D
:10333000926802F00C02082A51D0022B17D0424B9F
:1033400000221A60FDF766F904463E4B1B6813F035
:10335000007F42D0FDF75EF9001B0228F5D903205B
:103360006AE0384A136C23F080531364DBE7364B72
:1033700000221A60FDF74EF90546324B1B6813F028
:10338000007F06D0FDF746F9401B0228F5D903203F
:1033900052E0E369226A1343626A43EA8213A26A33
:1033A0005208013A43EA0243E26A43EA0263254AC9
:1033B0005360254B01221A60FDF72CF90446214B7E
:1033C0001B6813F0007F06D1FDF724F9001B0228CB
:1033D000F5D9032030E000202EE000202CE0012B66
:1033E0002CD0184B5B6803F48001E269914201D054
:1033F000012021E003F03F02216A8A4201D001202E
:103400001AE0616A47F6C0721A408A4201D0012070
:1034100012E003F44032A16A8A4201D001200BE09D
:1034200003F07063E26A93420AD0012004E00120B5
:103430007047012000E0002002B070BD0120FBE7D2
:103440000020F9E70038024060004742324B9B6899
:1034500003F00C03042B5CD0082B01D02F487047DD
:103460002DE9F04B2C4B5A6802F03F025B6813F4D5
:10347000800F2BD0284B5B68C3F388131E460027B0
:103480005C010025E41A65EB0705A90141EA946196
:10349000A001001B61EB0501CB0043EA5073C4009F
:1034A000A01943EB07014B0243EAD05344022046E4
:1034B00019460023FCF78CFE174B5B68C3F30143EE
:1034C00001335B00B0FBF3F0BDE8F08B124B5B689F
:1034D000C3F388131E4600275C010025E41A65EB40
:1034E0000705A90141EA9461A001001B61EB0501F8
:1034F000CB0043EA5073C400A01943EB07018B02D1
:1035000043EA90538402204619460023FCF760FEEC
:10351000D2E70348704700BF003802400024F4009F
:1035200000127A00002800F09E8070B50446504BCF
:103530001B6803F00F038B4209D2CBB24C4A1370C5
:10354000136803F00F038B4201D0012070BD236884
:1035500013F0020F17D013F0040F04D0454A9368FC
:1035600043F4E0539360236813F0080F04D0414AFA
:10357000936843F4604393603E4A936823F0F003FA
:10358000A068034393600D46236813F0010F32D007
:103590006368012B21D09A1E012A25D9354A126869
:1035A00012F0020F61D033498A6822F003021343FC
:1035B0008B60FDF72FF806462E4B9B6803F00C033B
:1035C0006268B3EB820F16D0FDF724F8801B41F23E
:1035D00088339842F0D90320B8E7264A126812F4DB
:1035E000003FE0D10120B1E7224A126812F0007FCB
:1035F000D9D10120AAE71E4B1B6803F00F03AB4291
:1036000009D9EAB21A4B1A701B6803F00F03AB42D8
:1036100001D001209AE7236813F0040F06D0154A61
:10362000936823F4E053E1680B439360236813F03D
:10363000080F07D00F4A936823F46043216943EAD7
:10364000C1039360FFF702FF0A4B9B68C3F30313A8
:10365000094AD35CD840094B1860094B1868FCF73D
:103660008FFF002072E70120704701206EE700BF46
:10367000003C0240003802408C7200082401002007
:1036800004000020014B1868704700BF240100208F
:1036900008B5FFF7F7FF044B9B68C3F38223034A87
:1036A000D35CD84008BD00BF003802409C720008BF
:1036B00008B5FFF7E7FF044B9B68C3F34233034AA7
:1036C000D35CD84008BD00BF003802409C7200089F
:1036D00001282AD1174B9B6813F4000303D0012B58
:1036E00025D115487047134B5B6813F4800F14D035
:1036F000104B5B6803F03F031048B0FBF3F00D4A3A
:10370000D2F88430C3F3881300FB03F0D2F884307E
:10371000C3F30273B0FBF3F07047064B5B6803F032
:103720003F030748B0FBF3F0E9E7002070470020B3
:10373000704700BF003802400080BB0000127A00D2
:103740000024F40000283BD010B504460023836217
:1037500090F85130002B2ED0022384F8513022688B
:10376000136823F0400313606368A2681343E268A0
:1037700013432269134362691343A26902F400727E
:103780001343E2691343226A1343A16A22680B437D
:103790001360638B03F00403616A22680B43536078
:1037A0002268D36923F40063D3610020606501239C
:1037B00084F8513010BD80F8503002F0BDFCCBE7EA
:1037C0000120704710B4036A046A24F00104046203
:1037D000846924F0F00444EA021223F00A030B4344
:1037E000826103625DF8044B704710B4036A23F0F2
:1037F000100303628469036A24F4704444EA0232C9
:1038000023F0A00343EA0113826103625DF8044BD5
:103810007047836823F07003194341F0070181600A
:10382000704700000368304A904212D0B0F1804FD8
:103830000FD0A2F57C4290420BD002F580629042FC
:1038400007D002F58062904203D002F578429042A0
:1038500003D123F070034A681343234A90422AD0CD
:10386000B0F1804F27D0A2F57C42904223D002F5E0
:10387000806290421FD002F5806290421BD002F518
:103880007842904217D002F57052904213D002F560
:10389000806290420FD002F5806290420BD0A2F578
:1038A0009832904207D002F58062904203D002F530
:1038B0008062904203D123F44073CA68134323F01B
:1038C00080034A69134303608B68C3620B68836299
:1038D000054B984203D003F58063984201D10B69F0
:1038E000036301234361704700000140A8B110B594
:1038F000044690F83D305BB1022384F83D30211D31
:103900002068FFF78FFF012384F83D30002010BDB1
:1039100080F83C3002F0F0FCEEE70120704710B474
:10392000846824F47F4442EA03230B4323438360E7
:103930005DF8044B704790F83C30012B66D010B511
:103940000446012380F83C30022380F83D300268B1
:10395000936823F47F4323F0770393600B68402B35
:103960004AD013D9602B3DD01ED9702B28D0B3F587
:10397000005F30D1CB684A6889680068FFF7CFFFE5
:103980002268936843F48043936024E0102B06D0B0
:1039900004D9202B03D0302B01D01CE0DBB9194611
:1039A0002068FFF736FF16E0502B14D1CA6849682B
:1039B0000068FFF707FF50212068FFF72AFF0AE0A1
:1039C000CB684A6889680068FFF7A9FF2268936896
:1039D00043F077039360012384F83D30002084F89E
:1039E0003C0010BDCA6849680068FFF7FEFE602110
:1039F0002068FFF70EFFEEE7CA6849680068FFF726
:103A0000E1FE40212068FFF704FFE4E70220704751
:103A100090F83C30012B3BD030B4012380F83C308F
:103A2000022380F83D3003685C689D6824F07004D0
:103A30000A6822435A600368164A93421AD0B3F1C7
:103A4000804F17D0A2F57C42934213D002F58062DA
:103A500093420FD002F5806293420BD002F5784278
:103A6000934207D002F57052934203D0A2F59432EC
:103A7000934204D125F080054A6815439D600123D7
:103A800080F83D30002380F83C30184630BC704749
:103A900002207047000001402DE9F04B0446026807
:103AA000136923F44053C1680B43136183680269AF
:103AB000134342691343C2691A430168CB6823F474
:103AC000164323F00C031343CB600268536923F4BD
:103AD000407381690B435361C369B3F5004F3BD019
:103AE0000368714A934200F0AB8002F58062934212
:103AF00000F0A680FFF7CCFD4FF00009061849EB57
:103B0000090716EB000B47EB090C4FEACC0343EA1D
:103B10005B734FEACB0293469C4663689A009B0F07
:103B200010EB0B0049EB0C01FCF752FB5F4DA5FBC2
:103B300000325109642202FB110213013233A5FB4A
:103B400003235B0903F0F00202EB011203F00F0301
:103B5000216813448B60A4E00368534A934239D030
:103B600002F58062934235D0FFF792FD83464FF015
:103B7000000C06184CEB0C0716EB000847EB0C0981
:103B80004FEAC90343EA58734FEAC8029046994680
:103B900062680021921841EB01031BEB08004CEB1B
:103BA0000901FCF715FB414DA5FB003251096422C8
:103BB00002FB1102D3003233A5FB03235B095A0039
:103BC00002F4F87202EB011203F0070321681344B8
:103BD0008B6066E0FFF76CFD80464FF00009061829
:103BE00049EB090716EB000B47EB090C4FEACC0336
:103BF00043EA5B734FEACB0293469C46626800211E
:103C0000921841EB010318EB0B0049EB0C01FCF798
:103C1000DFFA264DA5FB00325109642202FB110296
:103C2000D3003233A5FB03235B095A0002F4F87278
:103C300002EB011203F00703216813448B6030E0AC
:103C4000FFF736FD4FF00009061849EB090716EBA0
:103C5000000B47EB090C4FEACC0343EA5B734FEAD6
:103C6000CB0293469C4663689A009B0F10EB0B00B7
:103C700049EB0C01FCF7ACFA0C4DA5FB00325109E5
:103C8000642202FB110213013233A5FB03235B09FB
:103C900003F0F00202EB011203F00F03216813445A
:103CA0008B60BDE8F08B00BF001001401F85EB5119
:103CB0002DE9F04105460F4616469846069C2B68AE
:103CC0001B6837EA03030CBF01230023B3421DD155
:103CD000B4F1FF3FF3D02CB1FCF79CFCA0EB080043
:103CE000A042ECD92A68D36823F4D073D3602A6841
:103CF000536923F001035361202385F8393085F897
:103D00003A30002385F83830032000E00020BDE879
:103D1000F08158B310B5044690F839300BB3242322
:103D200084F839302268D36823F40053D3602046E6
:103D3000FFF7B2FE2268136923F4904313612268EF
:103D4000536923F02A0353612268D36843F4005374
:103D5000D3600020E063202384F8393084F83A30BF
:103D600010BD80F8383002F0FFFAD8E70120704724
:103D70002DE9F04383B01E4690F83930DBB2202B9A
:103D800056D104460D469046002956D0002A56D0FA
:103D900090F83830012B54D0012380F838304FF0A0
:103DA0000009C0F83C90212380F83930FCF732FC40
:103DB0000746A4F82480A4F8268084F8389010E000
:103DC00000963B46002280212046FFF771FF002825
:103DD00039D12B882268C3F3080353602369C3B920
:103DE0000235E38C9BB2B3B1E38C013B9BB2E3841D
:103DF000A368B3F5805FE3D000963B4600228021A4
:103E00002046FFF755FF00BB2A7823685A6001352A
:103E1000E7E70135E5E700963B46002240212046D2
:103E2000FFF746FF034690B9202284F8392000E0CE
:103E30000223184603B0BDE8F0830123F9E701230C
:103E4000F7E70223F5E70323F3E70323F1E703236F
:103E5000EFE72DE9F04383B01E4690F83A30DBB22D
:103E6000202B5CD104460D46904600295BD0002AE9
:103E70005BD090F83830012B59D0012380F83830CE
:103E80004FF00009C0F83C90222380F83A30FCF74C
:103E9000C1FB0746A4F82C80A4F82E8084F8389043
:103EA0001DE000963B46002220212046FFF700FF40
:103EB00000283ED1236933B923685B68C3F3080344
:103EC00025F8023B0BE023685B68DBB225F8013B79
:103ED00005E023685B6803F07F032B700135E38DF9
:103EE0009BB2BBB1E38D013B9BB2E385A368B3F505
:103EF000805FD6D000963B46002220212046FFF767
:103F0000D7FEC0B92369002BE3D123685B682B700F
:103F10000135E4E7202384F83A30002000E0022055
:103F200003B0BDE8F0830120FAE70120F8E70220A2
:103F3000F6E70320F4E70320F2E700000023013353
:103F40000C4A934211D80269002AF8DA036943F057
:103F50000103036100230133064A934207D8026933
:103F600012F0010FF7D100207047032070470320A3
:103F7000704700BF400D030084B010B5044603A88D
:103F800080E80E00089B012B1FD1A36B23F4803324
:103F9000A363E36823F4840323F04003E360E3684E
:103FA00023F44013E3600F9B012B09D02046FFF759
:103FB000C5FF069B012B1BD0BDE8104004B0704725
:103FC000E36843F48013E360F0E7E36843F0400301
:103FD000E3602046FFF7B2FF0C9B23B9A36B43F4C9
:103FE0008033A363E5E7A36B23F48033A363E0E7A7
:103FF000A36843F00603A360A36843F02003A36013
:10400000DAE7836843F00103836000207047836828
:1040100023F0010383600020704708B5C36823F0D4
:10402000C043C360012909D069B9C36843F0804324
:10403000C3603220FCF7F4FA002008BDC36843F0E7
:104040000053C360F5E70120F7E70000890141F064
:104050002001016100230133054A934205D802691A
:1040600012F0200FF7D1002070470320704700BFE7
:10407000400D03001023036100230133054A9342DE
:1040800005D8026912F0100FF7D100207047032005
:10409000704700BF400D030070B49DF80C4064B938
:1040A00003339D0807E000EB023303F5805351F81A
:1040B000046B1E600134AC42F5D3002070BC704725
:1040C00003329208002393420CD210B400F58054BE
:1040D000246841F8044B01339342F7D308465DF856
:1040E000044B70470846704742698069104070472A
:1040F000406900F00100704710B400F58064D0F80A
:10410000003423F00303C0F80034D0F8003401F089
:1041100003021343C0F80034012905D0022907D057
:1041200000205DF8044B70474BF680336360F7E77F
:1041300041F270736360F3E730B583B00446002545
:104140000195D0F840340193019B23F02E03019395
:10415000019B43F48073C0F840346420FCF760FA9C
:10416000019B23F48073C4F840340A20FCF758FA0A
:10417000284603B030BD82B000230193D0F840340C
:104180000193019B23F02E030193019B13F4805FA5
:1041900001D101290CD0019B13F4805F05D021B916
:1041A000019B23F48053C0F84034002002B07047D4
:1041B000019B43F48053C0F84034ECE784B038B539
:1041C000044605A880E80E0025460023C4F8003EFA
:1041D000A36B43F40013A363A36B23F40023A36333
:1041E000A36B23F48023A363E36B13F4807F10D0CD
:1041F000079B012B06D0D4F8003423F00403C4F845
:1042000000340CE0D4F8003443F00403C4F8003464
:1042100005E0D4F8003423F00403C4F8003410217E
:104220002046FFF713FF2046FFF724FF002209E096
:1042300005EB42134FF0FF31C3F808150021C3F816
:104240000C150132069B9342F2D801212046FFF75C
:1042500092FFC820FCF7E4F90023A3614FF0FF337D
:104260006361E36B13F4807F17D04FF400736362D4
:1042700003F18073A3620D4BC4F80031089B1BB996
:10428000A36943F01003A361A269094B1343A3611F
:104290000020BDE8384004B070478023636203F516
:1042A000C003A362034BC4F80031E7E70003E0005A
:1042B000080020A3E000400082B000230193D0F862
:1042C000403401930198C0F3414002B0704700F5BB
:1042D0008060806880B27047F0B506469DF818404F
:1042E00000EB411505F5A0604FF0FF378760032C08
:1042F00065D8DFE804F00256021840F29D47C76017
:1043000012F0800F09D1F76B17F4807F59D0C7687E
:1043100047F06007C76000200CE0C76847F480776B
:10432000C760002006E040F29D67C76012F0800F72
:1043300031D1002006F5806ED6F8187401F00F0117
:104340004FF0010C0CFA01F13943C6F81814B169A9
:1043500041F00071B16112F0800F34D100269DF858
:104360001410022932D000219B0503F0FE53D20223
:1043700002F4F0421343A20402F440221343BDF8B6
:104380001C20C2F30A02134333430B43C5F8003524
:10439000032C1ED0F0BDC76847F48077C7600020AB
:1043A000C8E740F22527C76012F0800F01D1002036
:1043B000C0E7C76847F4C077C7600020BAE70120AC
:1043C000B8E70020B6E74FF40046C8E74FF40031E5
:1043D000CAE7D5F8003543F00053C5F80035D9E7F2
:1043E00000F58060406980B2704710B400EB411165
:1043F00001F5A064D1F80035C3F381433BB3022B30
:1044000025D0D1F8003543F08043C1F80035D0F80D
:10441000103413F47F0F49D1D1F8003523F0004355
:10442000C1F80035D1F8003543F00043C1F800353C
:10443000D1F8003523F40043C1F8003500230133DF
:10444000B3F57A7F27D82268002AF8DB23E0D1F879
:10445000003543F08043C1F80035C36A13F47F0F81
:104460001DD1D1F8003523F00043C1F80035D1F853
:10447000003543F00043C1F80035D1F8003523F48E
:104480000043C1F8003500230133B3F57A7F02D829
:104490002268002AF8DB00205DF8044B7047D1F851
:1044A000003543F00043C1F80035F4E7D1F800359A
:1044B00043F00043C1F80035EDE7000000EB411187
:1044C000064AC1F81025D1F8003523F0804343F0A7
:1044D0000043C1F800350020704700BF000008808D
:1044E00070B582B04C78C36B13F4807F07D00B7922
:1044F0002BB912B94B79012B11D0012A13D00B69BA
:10450000E3B10D892B44013BB3FBF5F39BB2B3F54B
:10451000807F14D92D020D614FF480730FE0214686
:10452000FFF7CCFF75E000EB4413D3F80C5525F0F2
:104530006005C3F80C5500234B71E0E70123CD78EB
:104540001DB10D8905FB03F50D610D69C5F312055C
:10455000374E06EAC3432B438D7A6D0705F0C045FD
:1045600000EB44142B43C4F8103512B1CB68C4F8E7
:10457000143500F58066B36813F0010FD4F80035E8
:1045800023F00053C4F80035D4F800350CBF4FF0C9
:10459000005500252B43C4F80035D4F80055254BB1
:1045A0001D601D6825F080451D60CB78C3B1214D8D
:1045B0002B6843F400432B601E4B1D6845F00045FB
:1045C0001D601B68C4F800351ABBCB780BBB0B69A8
:1045D000FBB1CA79032A14D8DFE802F0081E081ECE
:1045E000144D2B6823F400432B60E5E70333C26AC4
:1045F00092B2C3F38F039A4203D2836943F020033C
:104600008361CC684A780B8A002100912146FFF72C
:1046100043FD002002B070BD0333326992B2C3F390
:104620008F039A42EDD2836943F080638361E8E7A8
:104630000000F81FA801002070B505460446FFF7EA
:10464000E6FC10212846FFF701FD2846FFF712FD82
:1046500000220AE004EB4211D1F8003523F0802358
:1046600043F08043C1F8003501320F2AF2D900200F
:10467000034600E001300F2813D804EB401606F57E
:10468000A061D6F8002522F4004242F04042C6F86C
:1046900000250133B3F57A7FECD80A68002AF8DBED
:1046A000E8E74FF0FF33C5F814346B612846FFF795
:1046B000A8FC002070BD0020704708B521220274BC
:1046C000202242740022428282820722C28200F0AB
:1046D00006FF08BD08B5A1220274212242740022FF
:1046E000428282820722C28200F0F9FE08BD38B5FC
:1046F0000446D0F87C33D9694031FFF7EBFF05461B
:1047000020B9D4F8D433022120469847284638BD32
:1047100038B50546D0F87C33DC69217879B9217B3E
:10472000B1B9617BF1B9D5F87C33D86928B102F011
:104730006DF9D5F87C330022DA61002038BD01F034
:104740001DF82178284601F031F800232370E6E7B0
:10475000284601F013F8217B284601F027F80023B2
:104760002373DEE7284601F009F8617B284601F053
:104770001DF800236373D6E7F0B585B00446012326
:104780000222114600F040FB012803D902273846D7
:1047900005B0F0BD06460146204600F02BFB07465B
:1047A000002840F0A280D4F87C53502002F026F973
:1047B000E861D4F87C33DD69002D00F09880502248
:1047C0000021284602F035F91A2303FB064393F82B
:1047D0004E3313F0800F70D16978204600F0D3FF7C
:1047E0000146287094F81C336A7868890290032087
:1047F000019094F81D030090204600F0AFFF0022C6
:104800002978204601F0E4FE00231A460A212046BA
:1048100000F0FAFA01286CD81A2303FB004393F83E
:104820004E3313F0800F50D1AB731A2303FB0043B8
:10483000B3F850332B831A2303FB004393F856330A
:1048400013F0800F49D1AB731A2303FB0040B0F87B
:1048500058332B83A97B204600F095FF6873E97BD2
:10486000204600F090FF287394F81C33AA7B697BE4
:10487000288B02900226019694F81D030090204692
:1048800000F06CFF94F81C33EA7B297B688B029064
:10489000019694F81D030090204600F05FFF00266B
:1048A00085F84C603246697B204601F091FE324625
:1048B000297B204601F08CFE69E76B701A2303FB0D
:1048C0000646B6F850336B8186E7EB731A2303FB79
:1048D0000043B3F850336B83ADE7EB731A2303FB4C
:1048E0000040B0F858336B83B4E702274FE7022744
:1048F0004DE702274BE7704730B583B00546D0F847
:104900007C33DC6994F84D30012B03D0022B19D095
:1049100003B030BD606A228B90420AD9637BE169A3
:1049200001200090284600F0E0FE022384F84D307C
:10493000EEE7637BE1690122009282B2284600F033
:10494000D4FEF2E7617B01F02FFE012805D002289A
:10495000DED1012384F84D30DAE7636A228B93427B
:104960000AD99B1A6362E3691A44E261636A33B14C
:10497000012384F84D30CBE700236362F6E7002380
:1049800084F84D302846FFF7B6FFC1E7704738B5C9
:104990000546D0F87C33DC6994F84E30032B02D006
:1049A000042B09D038BD237B628B216A00F0B3FE53
:1049B000042384F84E30F5E7217B01F0F5FD012852
:1049C000F0D1217B284601F0E9FDA36A834202D0A1
:1049D000628B824206D3002384F84E302846FFF7CC
:1049E000D5FFDFE71B1AA362236A18442062032362
:1049F00084F84E30D6E7704738B50546D0F87C339A
:104A0000DC6994F84C30042B04D8DFE803F04C0543
:104A1000163C4300012347E0A16CFFF74EFE03461E
:104A200030B1012840D0042384F84C3001233BE00E
:104A3000022384F84C30012336E004F14001FFF7F3
:104A400049FE0346C0B9002384F84C30636C23F060
:104A50007F42A16C4B6823F07F439A4201D001232F
:104A600022E0226C0B689A4201D001231CE0284608
:104A7000FFF7C1FF012317E0012815D0042384F8B4
:104A80004C30012310E0FFF737FF2846FFF77FFF88
:104A9000012309E0002100F0DFFD38B9002384F88C
:104AA0004C30012300E00023184638BD0123FBE70A
:104AB000002306E003F1E00200EB820200215160D6
:104AC00001330E2BF6D9002304E0C218002182F82E
:104AD0001C110133B3F5007FF7D30023037043703B
:104AE00001228270C0F8C43302764021817143767E
:104AF00080F81C3380F81D2380F81F3380F81E33A4
:104B00001846704708B50378DBB20B2B00D008BD00
:104B1000D0F87C33002BFAD09B699847F7E770B543
:104B200084B004464378072B00F23081DFE813F0AD
:104B3000080048006D009E00C300E90004011D014B
:104B4000082100F00CFD18B1032821D00125DEE07A
:104B500094F82D23A2710125657094F81C332179F6
:104B600002920026019694F81D230092802220468E
:104B700000F0F4FD94F81C336179A2790292019659
:104B800094F81D2300923246204600F0E7FDBEE077
:104B900094F81E330133DBB284F81E33032B03D9A0
:104BA0000D2323700125B2E06179204600F0FEFD5F
:104BB0002179204600F0FAFD002323700125A6E0AC
:104BC000122100F0CCFC18B1032805D001259EE08D
:104BD0000223637001259AE094F81E330133DBB29F
:104BE00084F81E33032B03D90D23237001258EE097
:104BF0006179204600F0DAFD2179204600F0D6FDEB
:104C0000002363702370012581E0012100F0F1FC95
:104C100018B1032824D0012579E0022001F0F1FC2D
:104C2000012584F81C53032363702179A37902932F
:104C30000026019694F81D3300932B4680222046CF
:104C400000F08CFD94F81C336179A27902920196F0
:104C500094F81D2300923246204600F07FFD56E076
:104C60000D23237000236370012550E0092100F01B
:104C70008FFC18B1032805D0012548E00423637098
:104C8000012544E094F81E330133DBB284F81E336F
:104C9000032B03D90D232370012538E061792046C9
:104CA00000F084FD2179204600F080FD0023637030
:104CB000237001252BE0B0F83A1300F069FC18B11D
:104CC000032805D0012522E00523637001251EE09D
:104CD00094F81E330133DBB284F81E33032B03D95F
:104CE0000D232370012512E06179204600F05EFD5E
:104CF0002179204600F05AFD0023637023700125BE
:104D000005E090F8341329B906234370012528469D
:104D100004B070BDFF2300F58E7200F052FC18B194
:104D2000032805D00125F2E7062363700125EEE78D
:104D3000062363700125EAE790F8351319B90723B4
:104D400043700125E3E7FF2300F58E7200F039FC84
:104D500018B1032805D00125D9E707236370012581
:104D6000D5E7072363700125D1E790F8361309B919
:104D70000025CCE7FF2300F58E7200F022FC0546EB
:104D80000028C4D0032803D00125C0E70125BEE7D1
:104D90000025BCE7D8B170B504460E4680F8CC2398
:104DA0000025C0F87C53C0F88053FFF781FE84F8DB
:104DB000235384F8205384F8215384F822530EB1EE
:104DC000C4F8D463204601F0B1FB002070BD02207E
:104DD00070470A4651B1D0F880334BB9591CC0F81E
:104DE0008013DE3340F823200020704702207047F4
:104DF0000220704790F83C338B4203D980F824138B
:104E0000002070470220704770B4064600200AE078
:104E10001A2404FB056595F849439C421AD0FF2BE0
:104E200018D0441CE0B2012813D805461A2404FB0C
:104E3000006494F847438C4201D0FF29F1D11A2431
:104E400004FB056494F848439442E1D0FF2AE8D17A
:104E5000DEE7FF2070BC704710B5044601F0DEFBB2
:104E60000121204601F0A6FB002010BD30B587B01F
:104E7000044602238DF8173090F82133DBB2012B62
:104E800011D02378DBB20B2B7BD8DFE813F00F00B7
:104E90002100450009017A007D00E70092009C0096
:104EA000A600B700000103230370EAE794F820335B
:104EB000002B66D001232370C82001F0A2FB2046FE
:104EC00001F0BCFB002384F81C33C4F8C83358E05D
:104ED00094F82333012B0FD0D4F8C833B3F57A7F7D
:104EE00013D994F81F330133DBB284F81F33032B3B
:104EF00008D90D23237044E0002384F81F330223D4
:104F000023703EE0002323703BE00A33C4F8C8332B
:104F10000A2001F076FB34E0D4F8D43313B1042135
:104F200020469847642001F06CFB204601F028FBE6
:104F300084F81D03052323700021204600F023FC84
:104F400060718021204600F01EFC0146207194F81B
:104F50001C33A27902920025019594F81D2300923A
:104F60008022204600F0FAFB94F81C336179A27984
:104F70000292019594F81D2300922A46204600F0E3
:104F8000EDFB002007B030BD2046FFF7C8FD8DF8CF
:104F900017009DF81730002BF3D184F8243394F8D0
:104FA0003733012B02D007232370EAE7082323704D
:104FB000E7E7D4F8D433002BE3D00121204698470B
:104FC00008232370DDE794F83D13204600F022FB10
:104FD0000028D6D109232370D3E794F83F3313F088
:104FE000200F02D10A232370CBE70121204600F0D5
:104FF00022FB0028C5D10A232370C2E7D4F88033EE
:10500000002BBED00023C4F87C3373B1D4F87C33BA
:105010000BB39B6820469847D0B906232370D4F879
:10502000D433032120469847ABE7184603F1DE024C
:1050300054F82220117994F84723914202D0013389
:10504000DBB2E2E7DE3054F82030C4F87C33DDE731
:105050000D23237095E70D23237092E7D4F87C335A
:1050600093B11B69204698478DF817009DF81730BB
:105070003BB19DF81730DBB2022B82D10D23237098
:105080007FE70B2323707CE70D23237079E7D4F8A7
:105090007C33002B3FF475AF5B692046984770E77F
:1050A000002384F821332046FFF702FDD4F87C3337
:1050B0002BB1DB68204698470023C4F87C33D4F832
:1050C000D43313B105212046984794F82233DBB23C
:1050D000012B03D0204601F0A1FA52E7002384F807
:1050E00022332046FFF7B8FE4BE7C0F8C4137047E1
:1050F00008B5D0F8C4330133C0F8C433FFF702FD5C
:1051000008BD012380F823337047002380F8233340
:105110007047012380F82033002380F8213380F882
:1051200022331846704738B50446012380F82133EE
:10513000002580F8205380F8235301F077FA217975
:10514000204600F033FB6179204600F02FFB284613
:1051500038BD10B40B7803704B7843708B78CC78E3
:1051600043EA042343800B7903714B7943718B79B4
:105170008371CB79C371082A16D90B7A4A7A43EA2C
:10518000022303818B7ACA7A43EA022343810B7B91
:105190004A7B43EA022383818B7B8373CB7BC3737C
:1051A0000B7C03744B7C43745DF8044B70470B78A5
:1051B00003704B7843708B788370CB78C3700B7916
:1051C00003714B7943718B798371CB79C3710B7AFE
:1051D000037270470B7803704B7843708B78837041
:1051E000CB78C3700B794A7943EA022383808B79A9
:1051F000837170474378032B00D070470378023BDC
:105200009A4228BF1A4692B2002393420DD210B49C
:10521000C418A47801F8014B02339BB29342F7D330
:1052200000230B705DF8044B704700230B70704730
:1052300030B583B00446037E013B0A2B00F2E180C7
:10524000DFE803F0061037435664808C9FADC4003E
:10525000427900F1100100F011FA022323760120B7
:1052600003B030BD417901F09FF9012805D0042831
:105270001BD0022819D00120F2E7237CE28A4AB130
:1052800013F0800F03D1052323760120E8E70323E1
:105290002376E5E713F0800F03D10723237601205F
:1052A000DEE7092323760120DAE70B2323760120AA
:1052B000D6E7D0F8C433C38103798289816800F0CE
:1052C00004FA042323760120CAE7017901F06CF97E
:1052D000012806D0052800F09680042804D001207B
:1052E000BEE709232376F5E70B2323760120B7E7F2
:1052F0004379828901250095816800F0D0F9D4F8BE
:10530000C433E381062323762846A9E7417901F0D7
:105310004BF9012807D0052808D002280AD0042814
:105320000CD001209CE70723237699E70C232376F2
:10533000032095E705232376012091E70B232376AD
:1053400002208DE703790022114600F0BEF9D4F85F
:10535000C433E38108232376012081E7017901F03A
:1053600023F9012805D0042807D005284DD00120B5
:1053700076E70D232376002072E70B2323760120A6
:105380006EE74379012500950022114600F087F968
:10539000D4F8C433E3810A232376284660E74179B1
:1053A00001F002F9012805D0022807D0042809D00D
:1053B000012055E70D232376002051E709232376AA
:1053C00001204DE70B232376012049E7437E01337B
:1053D000DBB24376022B10D9D0F8D433062198479C
:1053E000002565766179204600F0E0F921792046B4
:1053F00000F0DCF92570022032E701202076A07051
:105400002EE701202CE703202AE7032028E7037872
:105410000A8813440B800378184470472DE9F04143
:1054200082B00C460B7803704B7843708B78C97848
:1054300043EA012343802379037163794371A3799C
:105440008371E379C371237A0372092A44D905462B
:105450000923ADF806300026012E3DD86A88BDF834
:1054600006309A4238D90DF106012046FFF7CFFFEA
:1054700004464378042BEFD1B0461A2000FB06F017
:105480000830284421460230FFF791FE00271A23F6
:1054900003FB08539B7BBB421BD96A88BDF80630CF
:1054A0009A4216D90DF106012046FFF7B0FF0446D7
:1054B0004378052BEBD101371A2000FB08F000EBF5
:1054C000C7000830284421460430FFF783FEFFB2AE
:1054D000DDE70136F6B2BFE702B0BDE8F0818378C0
:1054E000012B03D0022B09D0012305E081608281CA
:1054F00001230376022282701846704710B50446D5
:10550000FFF796FE034630B1032804D0022806D1E7
:105510000122A27003E00122A27000222276184626
:1055200010BD38B5BDF810508478012C04D02A463F
:105530001946FFF7D4FF38BD61F07F0404740621DB
:105540004174428202F47F44B4F5407F03D00022CC
:105550008282C582EBE740F209428282F9E7F0B528
:1055600083B0044600F58E750E4600912B464FF42D
:1055700080720021FFF7D5FF074610B1384603B00F
:10558000F0BD3246294604F22630FFF7E2FDF5E78A
:10559000F0B583B004460E4600F11C0500912B4681
:1055A0004FF400720021FFF7BCFF074610B13846E8
:1055B00003B0F0BD3246294604F54E70FFF72EFFCA
:1055C000F5E7F0B583B017461D4600F58E740093DD
:1055D000234641F440720021FFF7A3FF064610B1B5
:1055E000304603B0F0BD2A4639462046FFF702FE9A
:1055F000F6E708B58378012B04D000221146FFF7A7
:105600006EFF08BD00230374052242744182838229
:10561000C382F2E708B58378012B04D0002211463B
:10562000FFF75DFF08BD0023037409224274418225
:105630008382C382F2E708B58378012B04D000226D
:105640001146FFF74CFF08BD002303740322427488
:1056500041828382C382F2E708B58378012B04D0AC
:1056600000221146FFF73BFF08BD0223037401230C
:105670004374002343828182C382F1E730B585B051
:1056800015460024039408230293019100942346B5
:105690002246294600F0F5FF204605B030BD30B562
:1056A00085B00C4619469DF8203090F81D5305B181
:1056B00000230393029201940123009300231A46CE
:1056C00000F0DFFF002005B030BD30B585B01D46CD
:1056D000002403940292019101220092234629465C
:1056E00000F0CFFF204605B030BD30B585B00C4688
:1056F00019469DF8203090F81D5305B100230393FF
:1057000002920194012300930223002200F0B9FFCA
:10571000002005B030BD30B585B01D46002403948F
:1057200002920191012200920223294600F0A9FF72
:10573000204605B030BD00230A2B0CD803F1E0024F
:1057400000EB8202526812F4004F02D00133DBB248
:10575000F2E798B270474FF6FF70704710B584B00B
:10576000BDF8204002949DF81C4001949DF818401B
:10577000009400F06BFF002004B010BD08B500F0ED
:1057800078FF002008BD38B504460D46FFF7D3FF6B
:105790004FF6FF73984207D000F00F0345F4004521
:1057A000E03304EB83035D60C0B238BD0A2906D83C
:1057B000E03100EB81014B68C3F30E034B60002026
:1057C0007047000000B585B0002300930193029359
:1057D00003931C481C4A02604FF4403242604FF071
:1057E0000072826001220261027680F82030C3627A
:1057F00016498162C3600223C36180F83020426190
:10580000FAF7BCFFA8B90123009301930723029381
:1058100069460C48FBF7EAF870B9082300930223A5
:10582000019369460748FBF7E1F840B905B05DF818
:1058300004FB00F05FFCE6E700F05CFCEDE700F045
:1058400059FCF3E71C020020002001400100000F7A
:1058500070B588B0002303930493059306930793D0
:10586000026803F1804303F590339A4201D008B0F7
:1058700070BD04460025009503F58C335A6C42F444
:1058800080725A645A6C02F480720092009A0195F8
:105890001A6B42F001021A631A6B02F001020192C4
:1058A000019A02951A6B42F002021A631B6B03F015
:1058B00002030293029B022303930326049603A987
:1058C0001248FBF751FC012303930496059503A9A5
:1058D0000F48FBF749FC0F480F4B0360456085609C
:1058E000C5604FF480630361456185614FF4807347
:1058F000C36105624562FBF7ADFA18B9054BA363B6
:105900009C63B4E700F0F6FBF8E700BF000002403C
:1059100000040240640200201064024000B583B01D
:105920000023009301930B480B4B0360FBF790F9A6
:1059300050B900220092019269460648FBF7D1F95E
:1059400028B903B05DF804FB00F0D4FBF1E700F0E8
:10595000D1FBF6E7C40200200074004000B589B016
:105960000023039304930593069307930268134B54
:105970009A4202D009B05DF804FB0021019103F5C1
:10598000E2331A6C42F000521A641A6C02F00052B0
:105990000192019A02911A6B42F001021A631B6B89
:1059A00003F001030293029B102303930323049348
:1059B00003A90348FBF7D8FBDCE700BF00740040F5
:1059C0000000024010B582B000240094124B1A6B04
:1059D00042F400121A631A6B02F400120092009A49
:1059E00001941A6B42F480021A631B6B03F4800368
:1059F0000193019B224621461020FBF7D1F810208D
:105A0000FBF702F9224621463820FBF7C9F8382077
:105A1000FBF7FAF802B010BD003802402DE9F04F54
:105A20008DB000240794089409940A940B9401946F
:105A3000594B1A6B42F010021A631A6B02F01002F3
:105A40000192019A02941A6B42F004021A631A6BD3
:105A500002F004020292029A03941A6B42F080024E
:105A60001A631A6B02F080020392039A04941A6B71
:105A700042F001021A631A6B02F001020492049AC6
:105A800005941A6B42F002021A631A6B02F00202CA
:105A90000592059A06941A6B42F008021A631B6B72
:105AA00003F008030693069BDFF8FC8022460821DA
:105AB0004046FBF73DFC394F012211463846FBF7C3
:105AC00037FCDFF8E89022464FF210014846FBF71A
:105AD0002FFC4FF0080ACDF81CA001250895099469
