:020000040800F2
:1000000000000220914D0008914900089349000822
:100010009549000897490008994900080000000028
:100020000000000000000000000000009B490008E4
:100030009D490008000000009F490008A1490008F0
:10004000E14D0008E14D0008E14D0008E14D0008D8
:10005000E14D0008E14D0008E14D0008E14D0008C8
:10006000E14D0008E14D0008E14D0008E14D0008B8
:10007000E14D0008E14D0008E14D0008E14D0008A8
:10008000E14D0008E14D0008E14D0008E14D000898
:10009000E14D0008E14D0008E14D0008E14D000888
:1000A000E14D0008E14D0008E14D0008E14D000878
:1000B000E14D0008E14D0008E14D0008E14D000868
:1000C000E14D0008E14D0008E14D0008E14D000858
:1000D000E14D0008E14D0008E14D0008E14D000848
:1000E000E14D0008E14D0008E14D0008E14D000838
:1000F000E14D0008E14D0008E14D0008E14D000828
:10010000E14D0008E14D0008E14D0008E14D000817
:10011000E14D0008E14D0008E14D0008E14D000807
:10012000E14D0008E14D0008E14D0008E14D0008F7
:10013000E14D0008E14D0008E14D0008E14D0008E7
:10014000E14D0008E14D0008E14D0008A949000813
:10015000E14D0008E14D0008E14D0008E14D0008C7
:10016000E14D0008E14D0008E14D0008E14D0008B7
:10017000E14D0008E14D0008E14D000800000000DD
:08018000E14D0008E14D00080B
:1001900010B5054C237833B9044B13B10448AFF3C1
:1001A00000800123237010BD4401002000000000E6
:1001B0008456000808B5034B1BB103490348AFF34D
:1001C000008008BD0000000048010020845600089F
:1001D00053B94AB9002908BF00281CBF4FF0FF31AE
:1001E0004FF0FF3000F072B9ADF1080C6DE904CEAC
:1001F00000F006F8DDF804E0DDE9022304B0704702
:100200002DE9F047089E04468846002B4BD18A42D0
:10021000154667D9B2FA82F24AB1C2F1200701FA53
:1002200002F320FA07F7954047EA030894404FEAA3
:10023000154E230CB8FBFEF71FFA85FC0EFB178842
:1002400043EA084307FB0CF1994209D9EB1807F17F
:10025000FF3080F01B81994240F21881023F2B440D
:100260005B1AA4B2B3FBFEF00EFB103344EA034466
:1002700000FB0CFCA44509D92C1900F1FF3380F0D8
:100280000781A44540F2048102382C4440EA07402B
:10029000A4EB0C0400271EB1D4400023C6E90043A0
:1002A0003946BDE8F0878B4209D9002E00F0EB807B
:1002B0000027C6E9000138463946BDE8F087B3FAA1
:1002C00083F7002F47D18B4202D3824200F2FA809B
:1002D000841A61EB030301209846002EE0D0C6E9A2
:1002E0000048DDE702B9FFDEB2FA82F2002A40F0F0
:1002F0008F80491B4FEA154E1FFA85F80127B1FB85
:10030000FEFC230C0EFB1C1143EA014308FB0CF11D
:10031000994207D9EB180CF1FF3002D2994200F252
:10032000CD808446591AA3B2B1FBFEF00EFB101427
:1003300043EA044408FB00F8A04507D92C1900F152
:10034000FF3302D2A04500F2B6801846A4EB0804A1
:1003500040EA0C409FE7C7F1200CBB4022FA0CFE9C
:100360004EEA030E01FA07F420FA0CF521FA0CF319
:100370004FEA1E482543B3FBF8F92C0C08FB193350
:100380001FFA8EFA44EA034309FB0AF49C4202FA7C
:1003900007F200FA07F10BD91EEB030309F1FF3056
:1003A00080F087809C4240F28480A9F10209734466
:1003B0001B1BADB2B3FBF8F008FB103345EA034456
:1003C00000FB0AFAA24508D91EEB040400F1FF3332
:1003D0006BD2A24569D90238744440EA0940A0FBB7
:1003E0000289A4EB0A044C45C2464B4654D351D073
:1003F000002E69D0B1EB0A0564EB030404FA0CFC8F
:10040000FD40FC404CEA0505C6E90054002747E7DB
:10041000C2F1200320FA03F7954001FA02F021FA15
:1004200003F34FEA154E3843010CB3FBFEF71FFAF6
:1004300085F80EFB173341EA034107FB08F38B42B3
:1004400004FA02F407D9691807F1FF3C2FD28B4256
:100450002DD9023F2944CB1A81B2B3FBFEF00EFB2B
:10046000103341EA034100FB08F38B4207D96918B6
:1004700000F1FF3C17D28B4215D902382944C91A22
:1004800040EA07473BE73746304609E70746E7E6D5
:100490001846FBE64145ABD2B8EB020A69EB0E0207
:1004A00001381346A4E76046E9E7184695E7674632
:1004B000D1E781467CE702382C4447E7ACF1020CD7
:1004C0002B442FE7384608E73746E9E6704700BF78
:1004D000034613F8012B002AFBD1181A0138704784
:1004E00001F0FF01102A2BDB10F0070F08D010F8E5
:1004F000013B013A8B422DD010F0070F42B3F6D1E9
:10050000F0B441EA012141EA014122F007047FF001
:1005100000070023F0E80256083C85EA010586EA58
:10052000010685FA47F5A3FA87F586FA47F6A5FA94
:1005300087F68EB9EED1F0BC01F0FF0102F00702A0
:1005400032B110F8013B013A83EA010313B1F8D14B
:100550000020704701387047002D06BF354603382C
:10056000073815F0010F07D1013015F4807F02BF65
:10057000013015F4C03F0130F0BC0138704700BFB6
:1005800010B504460E4B18784FF47A73B3FBF0F3B2
:100590000C4A1068B0FBF3F000F0AAF868B90F2C11
:1005A00001D901200AE0002221464FF0FF3000F07F
:1005B0005DF8034B5C60002000E0012010BD00BF2F
:1005C00000000020DC00002008B50B4B1A6842F444
:1005D00000721A601A6842F480621A601A6842F463
:1005E00080721A60032000F02FF80020FFF7C8FF88
:1005F00004F0AEF9002008BD003C0240034A116837
:10060000034B1B780B441360704700BF740100203C
:1006100000000020014B1868704700BF74010020E3
:1006200038B50446FFF7F6FF0546B4F1FF3F02D0A8
:10063000044B1B781C44FFF7EDFF401BA042FAD38C
:1006400038BD00BF00000020074AD36823F4E063F0
:100650001B041B0C000200F4E060184340F0BF6074
:1006600040F40030D060704700ED00E030B4174B2C
:10067000DB68C3F30223C3F10704042C28BF04245E
:100680001D1D062D18D9033B4FF0FF3505FA04F464
:1006900021EA0401994005FA03F322EA030319430E
:1006A00000280BDB0901C9B200F1604000F5614090
:1006B00080F8001330BC70470023E5E700F00F001E
:1006C0000901C9B2024B1954F4E700BF00ED00E084
:1006D00014ED00E0002807DB00F01F0240090123B1
:1006E0009340024A42F82030704700BF00E100E02A
:1006F0000138B0F1807F0AD2064B5860064AF021DB
:1007000082F823100020986007221A6070470120A9
:10071000704700BF10E000E000ED00E000230F2B69
:1007200000F2DC80F0B482B05DE086685F000324F4
:10073000BC4026EA0406CC68BC403443846046686A
:1007400026EA02064C68C4F300129A403243426023
:1007500056E0DC08083450F8247003F007029600D5
:100760000F22B24027EA02070A69B2403A4340F832
:10077000242059E0072200E00022B2403A4302342C
:10078000574E46F82420574A1468EA4302EA040602
:100790004F6817F4803F01D045EA0406514C2660AB
:1007A000646802EA04064F6817F4003F01D045EA86
:1007B00004064C4C6660A46802EA04064F6817F40D
:1007C000801F01D045EA0406464CA660E46822403A
:1007D0004E6816F4001F01D045EA0402414CE26065
:1007E00001330F2B77D801229A400C6804EA0205E6
:1007F000AA42F5D14C6804F00304013C012C94D9C1
:100800004A6802F00302032A09D0C4685E0003228A
:10081000B24024EA02048A68B2402243C2604A68B5
:1008200002F00302022A94D004685E000322B24060
:1008300024EA02044A6802F00302B2402243026042
:100840004A6812F4403FCBD000220192264A546CF1
:1008500044F480445464526C02F480420192019A40
:100860009C08A61C1E4A52F8267003F0030296004C
:100870000F22B24027EA02071C4A90423FF47CAFA5
:1008800002F5806290421AD002F58062904218D040
:1008900002F58062904216D002F58062904214D038
:1008A00002F58062904212D002F58062904210D030
:1008B00002F5806290423FF45DAF08225DE70122BD
:1008C0005BE7022259E7032257E7042255E7052296
:1008D00053E7062251E702B0F0BC7047704700BFF3
:1008E00000380140003C0140003802400000024056
:1008F00012B909048161704781617047F8B50568D4
:100900002C6A04F00F06C4F34343C4F30A14022B09
:1009100013D194B12C2303FB0603596C69B12C232A
:1009200003FB06031A6D2244DB6C9A4206D92C2382
:1009300003FB0600042380F86030F8BD074622461A
:10094000284602F0C9F82C2303FB06735A6C224494
:100950005A641A6D22441A6505EB4615D5F8102520
:10096000C2F3C942B3F84030A342E6D1002AE4D032
:10097000D5F8003523F0804343F00043C5F8003537
:100980002C2000FB067090F8543083F0010380F8AF
:100990005430D2E7F0B585B09DF828509DF82C6012
:1009A000BDF8307090F8F842012C38D0012480F85E
:1009B000F8422C2404FB01044FF0000C84F83DC0E5
:1009C00084F83830A4F8407084F8391084F83F6017
:1009D00002F07F0C84F83AC012F0800F17D12C245B
:1009E00004FB01044FF0000C84F83BC004462C20AB
:1009F00000FB014080F83C5002970196009520686A
:100A000002F0B4F9002384F8F83205B0F0BD2C24CC
:100A100004FB01044FF0010C84F83BC0E6E7022020
:100A2000F3E790F8F832012B0BD010B50446012300
:100A300080F8F832006802F02DFA002084F8F802FD
:100A400010BD02207047002845D0F0B58BB0064697
:100A5000046890F8F932002B38D0032386F8F93275
:100A6000E36B13F4807F01D100233361306801F020
:100A7000EAFF344654F810CB6D460FCC0FC50FCCAF
:100A80000FC594E8030085E80300371D97E80E00C2
:100A9000604601F08DFF0121306802F04CF83446C9
:100AA00054F810CB6D460FCC0FC50FCC0FC594E892
:100AB000030085E8030097E80E00604602F06CF83A
:100AC000012386F8F93200200BB0F0BD80F8F8322F
:100AD00004F02AF8C1E701207047F8B59DF81850D6
:100AE000BDF820602C2404FB010484F83B2084F82A
:100AF0003F307DB92C2404FB0104032784F84270A5
:100B00009DF8247084F83D70032B7FD8DFE803F054
:100B1000097828502C2404FB0104022784F8427031
:100B2000F2E7012D72D1002A70D12EB92C2303FBDC
:100B30000103012283F855202C2303FB010393F8C2
:100B4000553033B92C2303FB0103002283F84220E4
:100B50005CE02C2303FB0103022283F8422055E0D2
:100B600092B92C2303FB010393F855302BB92C23A6
:100B700003FB010383F8422048E02C2303FB01031D
:100B8000022283F8422041E02C2303FB010393F867
:100B9000543033B92C2303FB0103002283F8422095
:100BA00034E02C2303FB0103022283F842202DE0D2
:100BB00092B92C2303FB010393F855302BB92C2356
:100BC00003FB010383F8422020E02C2303FB0103F5
:100BD000022283F8422019E02C2303FB010393F83F
:100BE000543033B92C2303FB0103002283F8422045
:100BF0000CE02C2303FB0103022283F8422005E0D2
:100C00002C2303FB0103002283F842202C2303FB47
:100C100001F3C218079C5464D664002482F8604033
:100C2000146582F8391082F8614003F13801027CC2
:100C30000144006802F0B4F9F8BD30B583B0054650
:100C40000468D4F840340193D4F840340093009BF6
:100C500023F02E030093019B13F0020F07D0019B9A
:100C600013F0010F25D1009B43F002030093019B79
:100C700013F0080F10D0009B43F008030093019B72
:100C800013F0040F2DD0AB69022B15D0EB68012BAC
:100C900022D0284603F0A7FF019B13F0200F03D0BA
:100CA000009B43F020030093009BC4F8403403B042
:100CB00030BD03F08BFFD6E7019B03F4C023B3F5EF
:100CC000802F04D00121286801F0DEFFE1E7022136
:100CD000286801F0D9FFDCE74EF66022C4F804244E
:100CE000D7E7284603F085FFD6E7F8B505460E4658
:100CF000076807EB411707F5A064A36813F0040F1A
:100D000040D00423A360E36843F00203E360A368D8
:100D100013F4007F40F09380A36813F0010F00F0FC
:100D2000D7802B6943B12C2303FB06539A6C2169AE
:100D3000C1F31201521A1A652C2303FB0653012238
:100D400083F861200021D965A26093F83F30002B21
:100D500000F08180022B7ED0032B00F09380012BCA
:100D600040F083802C2303FB0653012283F860208C
:100D700093F85410514083F854103146284603F03C
:100D800031FF72E0A36813F4807F06D1A36813F0EB
:100D9000200F13D02023A360B9E74FF48073A36022
:100DA0002C2303FB0103072283F86120E36843F04F
:100DB0000203E360006802F06DF8A8E7A36813F08F
:100DC000080F17D1A36813F4806F25D1A36813F01F
:100DD000800F9CD0E36843F00203E3602C2303FB05
:100DE0000103062283F86120006802F053F8802393
:100DF000A3608CE7E36843F00203E3602C2303FB6A
:100E00000103052283F861201023A3600823A36057
:100E1000006802F03FF87AE7E36843F00203E3601A
:100E20002C2303FB0103082283F861201023A36015
:100E30004FF48063A360006802F02CF867E7E36872
:100E400043F00203E3603146286802F023F84FF4D0
:100E50000073A360F8BDE36843F00203E36031462A
:100E6000286802F017F81023A3602B69012B1AD011
:100E70002C2303FB065595F8543083F0010385F8C5
:100E80005430E7E7D7F8003543F00053C7F8003592
:100E90002C2303FB0653012283F8602031462846A9
:100EA00003F0A0FEE1E72C2303FB06539A6CB3F892
:100EB0004030B2FBF3F313F0010FCBD02C2303FB34
:100EC000065595F8543083F0010385F85430C1E796
:100ED000A36813F0020F64D0E36823F00203E36019
:100EE0002C2303FB065393F86130012B13D0052B01
:100EF00023D0062B28D0082B26D0032B42D0072B3B
:100F00000FD12C2303FB0653DA6D0132DA6504227C
:100F100083F8602005E02C2303FB0653012283F8AD
:100F200060200223A3602C2303FB065393F8602068
:100F30003146284603F056FE8CE72C2303FB06536C
:100F4000052283F86020ECE72C2202FB0652D36DC9
:100F50000133D365022B06D913460022DA65042239
:100F600083F86020DDE72C2303FB0653022283F87D
:100F70006020D7F8003523F0804343F00043C7F8E2
:100F80000035CEE72C2303FB0653022283F86020B2
:100F9000D7F8003523F0804343F00043C7F800350D
:100FA000BFE7A36813F0100F3FF454AF2C2303FBEB
:100FB000065393F83F30032B0CD00BB1022B06D114
:100FC0002C2303FB06530022DA652B6983B110231F
:100FD000A3603FE72C2303FB06530022DA65E36896
:100FE00043F00203E3603146286801F053FFEEE767
:100FF0002C2303FB0653032283F86120E36843F0AC
:101000000203E3603146286801F044FFDFE770B572
:10101000036803EB411303F5A064A26812F0040F08
:101020001ED10E460546A26812F0200F1FD02023C5
:10103000A3602C2303FB010393F83D30012B15D152
:101040002C2303FB0103002283F83D20022283F8B6
:101050006020E3681343E360006801F01BFF05E0D4
:101060000423A360E36843F00203E36070BDA26859
:1010700012F4007F24D1A26812F0010F2BD02C2390
:1010800003FB01030022DA65A36813F0400F07D0C9
:101090002C2303FB0103012283F83D204023A3609E
:1010A000E36843F00203E3603146286801F0F2FE92
:1010B0000123A3602C2000FB065080F86130D5E7A7
:1010C000E36843F00203E360006801F0E3FE4FF4DD
:1010D0000073A360CAE7A26812F0400F29D1A2688A
:1010E00012F0080F3AD1A26812F0100F46D02C234C
:1010F00003FB01030022DA65032283F8612093F8E1
:101100003D305BB92C2303FB010393F83C302BB932
:101110002C2303FB0103012283F83D20E36843F005
:101120000203E3603146286801F0B4FE1023A36097
:101130009CE72C2303FB0103042283F86120012296
:1011400083F83D200022DA65E36843F00203E360A0
:10115000006801F09FFE4023A36087E70823A36097
:10116000E36843F00203E360006801F093FE2C2182
:1011700001FB0651052381F8613077E7A26812F080
:10118000800F29D0036983B12C2202FB0102D36DA9
:101190000133D365022B16D82C2101FB0601022353
:1011A00081F860308023A36060E72C2303FB0103F8
:1011B000062283F86120E36843F00203E3600068DD
:1011C00001F068FEEEE713460022DA65042283F898
:1011D000602003F007FDE5E7A26812F4806F27D1D5
:1011E000A26812F0020F3FF441AFE26822F002025F
:1011F000E2602C2202FB010292F86120012A2AD02F
:10120000032A68D0042A6DD0052A72D0062A01D09C
:10121000082A2BD12C2101FB0651CA6D0132CA6567
:10122000022A6CD90022CA65042281F860201DE0E0
:10123000E36843F00203E360006801F02BFE102333
:10124000A3604FF48063A3602C2101FB06510823A7
:1012500081F861300AE72C2303FB010383F8602047
:1012600093F83F30023BDBB293420BD90223A360D9
:101270002C2303FB065393F860203146284603F0E5
:10128000B1FCF3E6016941B92C2303FB060393F893
:10129000552082F0010283F855200129E6D12C2344
:1012A00003FB0653DB6C002BE0D02C2202FB065222
:1012B000B2F840201344013BB3FBF2F313F0010FEB
:1012C000D4D02C2303FB065393F8552082F001025F
:1012D00083F85520CAE72C2303FB0103022283F87D
:1012E0006020C3E72C2303FB0103022283F8602064
:1012F000BCE72C2303FB010383F86020B6E72C2214
:1013000002FB0652022182F86010D3F8002522F079
:10131000804242F00042C3F80025A7E7F8B5044632
:101320000568284601F003FC012800D0F8BD2E46D0
:10133000206801F0F8FB0028F8D0206801F0F3FBEA
:1013400010F4001F03D023684FF400125A61206884
:1013500001F0E9FB10F4801F03D023684FF48012E2
:101360005A61206801F0DFFB10F0806F03D0236822
:101370004FF080625A61206801F0D5FB10F0020F37
:1013800002D0236802225A61206801F0CCFB10F0E1
:10139000005F08D023684FF000525A61D5F84034FE
:1013A00013F0010F1DD0206801F0BDFB10F0807F0D
:1013B00026D1206801F0B7FB10F0080F24D1206877
:1013C00001F0B1FB10F0100F25D1206801F0ABFB4C
:1013D00010F0007FAAD0206801F057FD07460025D5
:1013E0002CE01021284601F035FB284601F04AFB8D
:1013F0000121206801F048FC204603F0EDFBD2E714
:101400002046FFF71AFCD4E7204603F0D9FB2368F7
:1014100008225A61D3E72268936923F0100393618D
:101420002046FFF76BFA2268936943F0100393613B
:10143000CBE7E9B22046FFF7EAFD0135A368AB42EE
:1014400012D905F00F0327FA03F313F0010FF4D0BC
:1014500006EB4513D3F8003513F4004FE9D0E9B299
:101460002046FFF742FCE8E723684FF000725A611C
:101470005CE790F8F832012B0ED010B5044601213C
:1014800080F8F812006801F03EFC206801F0D5FAFF
:10149000002084F8F80210BD0220704790F8F8325E
:1014A000012B0BD010B50446012380F8F8320068F8
:1014B00001F024FE002084F8F80210BD02207047DD
:1014C00008B5006801F000FC08BD2C2303FB0101F6
:1014D00091F8600070472C2303FB0101086D7047F1
:1014E00008B5006801F03DFC08BD08B5006801F0D2
:1014F0002DFC08BD002800F0C880F8B5044690F81F
:101500003D30002B75D0242384F83D3022681368C9
:1015100023F0010313602268136843F4004313604F
:101520002268136823F40043136000F0D1FE626860
:10153000584B9A4262D8584B98428CBF00230123E3
:10154000002B40F0A480554BA3FB00239B0C21688B
:101550004A6822F03F021A434A6025682A6A22F04C
:101560003F0266684B498E424ED8013313432B62CB
:101570002568E96921F44F4121F0FF016368454A7C
:1015800093424BD801385B00B0FBF3F30133C3F354
:101590000B03042B38BF04230B43EB6121680B685A
:1015A00023F0C003E269206A024313430B60216801
:1015B0008B6823F4034323F0FF032269E0680243AE
:1015C00013438B602168CB6823F0FF036269A06935
:1015D00002431343CB602268136843F00103136096
:1015E00000202064202384F83D30206384F83E00EE
:1015F000F8BD80F83C3002F029FF84E7284B984280
:101600008CBF002301239BE74FF4967101FB03F38A
:101610002449A1FB03139B090133A7E7A268BAB9C8
:10162000461E03EB4307B6FBF7F60136C6F30B067F
:10163000B6FA86F6760936BBC2B9013803EB430326
:10164000B0FBF3F30133C3F30B0242F40043A3E70F
:10165000461E03EB830707EB8707B6FBF7F6013659
:10166000C6F30B06B6FA86F67609E4E7013803EB13
:10167000830303EB8303B0FBF3F20132C2F30B02EB
:1016800042F4404388E7012386E7012070470120A8
:10169000AEE700BFA08601007F841E0083DE1B43EF
:1016A000FF083D00D34D6210002800F0BD8070B5EA
:1016B000044690F84130002B51D0022284F841209A
:1016C0002168CB6923F47B6323F00F03CB6123688C
:1016D0001A626369934263D0E368002B46D11025F8
:1016E000A368202B00D86D00012000F0BBFE236909
:1016F000B3F5007F3CD0B0FBF5F000EB8000430079
:101700006269B3FBF2F30533484AA2FB0323DB080B
:1017100003F001029B1A5B081202991EFD2941D8B1
:1017200021690A43216813430B622168CB6923F4C2
:101730007B6323F00F036268A0680243E068024302
:10174000A0690243134343F40063CB61236A012B76
:101750002ED000206064012384F8413070BD80F8F1
:101760004030334B436302F0C7FEA6E72025B7E7BE
:10177000E36853B1AD00B0FBF5F000EB800043002F
:101780006269B3FBF2F30533BEE7ED00B0FBF5F0A1
:1017900000EB800043006269B3FBF2F30533B3E76B
:1017A0000022BAE7636C43F0100363640120D5E7BD
:1017B000204B63632268204B9A421FD04FF0402297
:1017C000D36923F47B6323F00F03D36122681A4BA0
:1017D0009A4215D04FF0402302221A622268164B1B
:1017E0009A4210D04FF04025EB699BB26268B2F587
:1017F000007F0AD0B2B94FF4807008E00F4ADFE7EB
:10180000A3F58063E8E70D4DEEE74FF4807026897D
:10181000A189228B304301430A43134343F40063FD
:10182000EB6196E70020F2E701207047CDCCCCCCED
:10183000B3180008BD1A000800380040003400400A
:10184000704708B5426A03681288DA60436A023357
:101850004362438D013B9BB24385438D9BB203B1F1
:1018600008BD0268536823F0A0035360012380F889
:101870004130FFF7E5FFF3E7704708B50368DA6822
:10188000C36A1A80C36A0233C362438E013B9BB2B0
:101890004386438E9BB203B108BD0268536823F0B0
:1018A00060035360012380F84130FFF7E5FFF3E761
:1018B000704710B584B0044602689368039390F8AB
:1018C0004130DBB2042B06D094F84130DBB2032B5D
:1018D0002CD004B010BD039B13F0010F03D053684C
:1018E00013F0400F1FD1039B13F0400FECD023687F
:1018F0005A6812F0200FE7D05A6822F060025A604E
:10190000002301932368DA6801929B680193019B8D
:10191000012384F84130636C43F002036364204682
:10192000FFF7C6FFD0E7FFF7A8FFDCE7039B13F044
:10193000020F04D023685B6813F0800F1DD1039B56
:1019400013F0080FC5D023685A6812F0200FC0D0DA
:101950005A6822F0A0025A600023029323689B6811
:101960000293029B012384F84130636C43F004032B
:1019700063642046FFF79CFFABE72046FFF761FF5B
:10198000DDE7704708B5436A9A1C426202681B880B
:10199000D360438D013B9BB24385438D9BB23BB9E2
:1019A0000268536823F0A0035360438E9BB203B1D7
:1019B00008BD012380F84130FFF7E3FFF8E700009E
:1019C00008B50268144B9A421BD04FF04023DA68E6
:1019D000C36A991CC1621A80438E013B9BB2438645
:1019E000438E9BB263B902680B4B9A420CD04FF006
:1019F0004022536823F060035360438D9BB22BB1A8
:101A000008BDA3F58063E2E7044AF2E7012380F80A
:101A10004130FFF7B6FFF3E70038004000340040E4
:101A200008B5436A9A1C42621A880168124B9942AF
:101A300017D04FF04023DA60438D013B9BB24385C2
:101A4000438D9BB263B902680B4B9A420CD04FF0A6
:101A50004022536823F0A0035360438E9BB22BB106
:101A600008BDA3F58063E6E7044AF2E7012380F8A6
:101A70004130FFF786FFF3E70038004000340040B4
:101A800008B50368DA68C36A991CC1621A80438E7C
:101A9000013B9BB24386438E9BB23BB902685368BD
:101AA00023F060035360438D9BB203B108BD012353
:101AB00080F84130FFF765FFF8E7000010B586B009
:101AC000044603689A680592704A93426FD04FF0BB
:101AD0004022916804915B680393536802936368A2
:101AE000B3F5007F01D0002B70D1059B13F0020FDE
:101AF00003D0039B13F0800F5CD1049B13F0010F04
:101B000003D0029B13F0400F58D1049B13F0400FF9
:101B100024D0029B13F0200F20D022685B4B9A4206
:101B200050D04FF04022536823F060035360226886
:101B3000536823F0A0035360002300932368DA68FE
:101B400000929B680093009B012384F84130636CF2
:101B500043F0020363642046FFF7AAFE059B13F0DF
:101B6000080F22D0039B13F0200F1ED02268536869
:101B700023F0A00353602268444B9A4224D04FF0D4
:101B80004022536823F060035360002301932368CD
:101B90009B680193019B012384F84130636C43F0FF
:101BA000040363642046FFF783FE06B010BDA2F570
:101BB00080628EE72046FFF7E5FE9EE72046FFF7AE
:101BC000FFFEA2E7324AAEE7314ADAE7049B13F0A0
:101BD000020F03D0029B13F0800F4AD1059B13F034
:101BE000010F03D0039B13F0400F46D1059B13F068
:101BF000400F1CD0039B13F0200F18D022685368AD
:101C000023F0600353602268204B9A4239D04FF092
:101C10004022536823F0A0035360012384F841302D
:101C2000636C43F0020363642046FFF741FE049BAC
:101C300013F0080FB9D0029B13F0200FB5D0226823
:101C4000124B9A421FD04FF04022536823F0A0035A
:101C500053602268536823F060035360012384F8C3
:101C60004130636C43F0040363642046FFF720FEB9
:101C70009BE72046FFF7D4FEB0E72046FFF700FFC2
:101C8000B4E7034AC5E7024ADFE700BF0038004077
:101C900000340040002800F0E98170B582B00446AD
:101CA000036813F0010F3BD0A74B9B6803F00C03B4
:101CB000042B2CD0A44B9B6803F00C03082B21D0E1
:101CC0006368B3F5803F4FD0B3F5A02F52D09E4B41
:101CD0001A6822F480321A601A6822F480221A608C
:101CE0006368002B50D0FEF795FC0546964B1B68A9
:101CF00013F4003F14D1FEF78DFC401B6428F5D986
:101D00000320B8E1904B5B6813F4800FD8D08E4B62
:101D10001B6813F4003F03D06368002B00F0A88118
:101D2000236813F0020F55D0874B9B6813F00C0FFC
:101D30003ED0854B9B6803F00C03082B33D0E3683F
:101D4000002B68D0814B01221A60FEF763FC054628
:101D50007D4B1B6813F0020F54D1FEF75BFC401B58
:101D60000228F5D9032086E1774A136843F48033CB
:101D70001360B5E7744B1A6842F480221A601A683F
:101D800042F480321A60ABE7FEF744FC05466E4B26
:101D90001B6813F4003FC3D0FEF73CFC401B6428D3
:101DA000F5D9032067E1684B5B6813F4800FC6D157
:101DB000654B1B6813F0020F04D0E368012B01D0C0
:101DC000012058E1604A136823F0F803216943EACF
:101DD000C1031360236813F0080F40D0636963B335
:101DE0005B4B01221A60FEF715FC0546564B5B6FF4
:101DF00013F0020F33D1FEF70DFC401B0228F5D97A
:101E0000032038E1504A136823F0F803216943EABC
:101E1000C1031360DEE74D4B00221A60FEF7FAFBA8
:101E20000546494B1B6813F0020FD3D0FEF7F2FBB7
:101E3000401B0228F5D903201DE1454B00221A6002
:101E4000FEF7E8FB0546404B5B6F13F0020F06D030
:101E5000FEF7E0FB401B0228F5D903200BE12368C5
:101E600013F0040F79D0384B1B6C13F0805F33D123
:101E700000230193344B1A6C42F080521A641B6C9D
:101E800003F080530193019B0125324B1B6813F42F
:101E9000807F23D0A368012B34D0052B38D02A4B68
:101EA0001A6F22F001021A671A6F22F004021A67F1
:101EB000A368002B36D0FEF7ADFB0646224B1B6F06
:101EC00013F0020F48D1FEF7A5FB801B41F28833C7
:101ED0009842F3D90320CEE00025D6E71D4A1368C7
:101EE00043F480731360FEF795FB0646194B1B689D
:101EF00013F4807FCED1FEF78DFB801B0228F5D92D
:101F00000320B8E0104A136F43F001031367CFE7D3
:101F10000D4B1A6F42F004021A671A6F42F0010269
:101F20001A67C5E7FEF776FB0646074B1B6F13F0F3
:101F3000020F11D0FEF76EFB801B41F288339842EE
:101F4000F3D9032097E000BF003802400000474269
:101F5000800E474200700040EDB9A369002B00F0ED
:101F60008980484A926802F00C02082A51D0022B5C
:101F700017D0454B00221A60FEF74CFB0446414B3C
:101F80001B6813F0007F42D0FEF744FB001B0228C1
:101F9000F5D903206FE03B4A136C23F080531364A0
:101FA000DBE7394B00221A60FEF734FB0546354B60
:101FB0001B6813F0007F06D0FEF72CFB401B0228A5
:101FC000F5D9032057E0E369226A1343626A43EAC2
:101FD0008213A26A5208013A43EA0243E26A43EAE0
:101FE0000263284A5360284B01221A60FEF712FB55
:101FF0000446244B1B6813F0007F06D1FEF70AFB52
:10200000001B0228F5D9032035E0002033E0002032
:1020100031E0012B31D01B4B5B6803F48001E26996
:10202000914201D0012026E003F03F02216A8A425A
:1020300001D001201FE0616A47F6C0721A40B2EB7E
:10204000811F01D0012016E003F44031A26A52083A
:10205000013AB1EB024F01D001200CE003F07063B4
:10206000E26AB3EB026F0AD0012004E0012070475E
:10207000012000E0002002B070BD0120FBE700203D
:10208000F9E700BF0038024060004742324B9B68CE
:1020900003F00C03042B5CD0082B01D02F487047B1
:1020A0002DE9F04B2C4B5A6802F03F025B6813F4A9
:1020B000800F2BD0284B5B68C3F388131E46002784
:1020C0005C010025E41A65EB0705A90141EA94616A
:1020D000A001001B61EB0501CB0043EA5073C40073
:1020E000A01943EB07014B0243EAD05344022046B8
:1020F00019460023FEF76CF8174B5B68C3F30143E6
:1021000001335B00B0FBF3F0BDE8F08B124B5B6872
:10211000C3F388131E4600275C010025E41A65EB13
:102120000705A90141EA9461A001001B61EB0501CB
:10213000CB0043EA5073C400A01943EB07018B02A4
:1021400043EA90538402204619460023FEF740F8E4
:10215000D2E70348704700BF003802400024F40073
:1021600000127A00002800F09E8070B50446504BA3
:102170001B6803F007038B4209D2CBB24C4A1370A1
:10218000136803F007038B4201D0012070BD236860
:1021900013F0020F17D013F0040F04D0454A9368D0
:1021A00043F4E0539360236813F0080F04D0414ACE
:1021B000936843F4604393603E4A936823F0F003CE
:1021C000A068034393600D46236813F0010F32D0DB
:1021D0006368012B21D09A1E012A25D9354A12683D
:1021E00012F0020F61D033498A6822F003021343D0
:1021F0008B60FEF70FFA06462E4B9B6803F00C032C
:102200006268B3EB820F16D0FEF704FA801B41F22E
:1022100088339842F0D90320B8E7264A126812F4AE
:10222000003FE0D10120B1E7224A126812F0007F9E
:10223000D9D10120AAE71E4B1B6803F00703AB426C
:1022400009D9EAB21A4B1A701B6803F00703AB42B4
:1022500001D001209AE7236813F0040F06D0154A35
:10226000936823F4E053E1680B439360236813F011
:10227000080F07D00F4A936823F46043216943EAAB
:10228000C1039360FFF702FF0A4B9B68C3F303137C
:10229000094AD35CD840094B1860094B1868FEF70F
:1022A0006FF9002072E70120704701206EE700BF40
:1022B000003C024000380240BC560008DC00002010
:1022C00004000020014B1868704700BFDC000020AC
:1022D00008B5FFF7F7FF044B9B68C3F38223034A5B
:1022E000D35CD84008BD00BF00380240CC5600087F
:1022F00008B5FFF7E7FF044B9B68C3F34233034A7B
:10230000D35CD84008BD00BF00380240CC5600085E
:1023100030B583B00446036813F0050F06D1236877
:1023200013F0020F2ED1002003B030BD494B002224
:102330001A60FEF76FF90546474B1B6813F0006FF4
:1023400006D0FEF767F9401B0228F5D90320EBE71A
:102350006268A3681B0743EA82133F4AC2F88430CD
:102360003C4B01221A60FEF755F905463A4B1B68B3
:1023700013F0006FD3D1FEF74DF9401B0228F5D9B9
:102380000320D1E700230193334B1A6C42F08052B3
:102390001A641B6C03F080530193019B2F4A13684E
:1023A00043F480731360FEF735F905462B4B1B6829
:1023B00013F4807F06D1FEF72DF9401B0228F5D9D2
:1023C0000320B1E7244B1B6F13F4407312D0E26873
:1023D00002F440729A420DD01F4B1A6F22F44072E1
:1023E0001F4901200860002008601A671B6F13F066
:1023F000010F13D1E36803F44072B2F5407F1ED0A1
:10240000154A936823F4F813936013490B6FE2683D
:10241000C2F30B0213430B67002085E7FEF7FAF8BF
:1024200005460D4B1B6F13F0020FE3D1FEF7F2F8D8
:10243000401B41F288339842F3D9032074E70649E0
:102440008A6822F4F81223F0704323F44073134394
:102450008B60DAE7680047420038024000700040B5
:10246000400E474201282AD1174B9B6813F4000302
:1024700003D0012B25D115487047134B5B6813F42B
:10248000800F14D0104B5B6803F03F031048B0FB83
:10249000F3F00D4AD2F88430C3F3881300FB03F045
:1024A000D2F88430C3F30273B0FBF3F07047064BED
:1024B0005B6803F03F030748B0FBF3F0E9E7002057
:1024C00070470020704700BF003802400080BB000A
:1024D00000127A000024F40000285AD010B50446F7
:1024E000436A33B94368B3F5827F05D00023C361E3
:1024F00002E00023036143610023A36294F851309A
:10250000002B40D0022384F851302268136823F056
:1025100040031360636803F48273A26802F4044208
:102520001343E26802F400621343226902F00202DC
:102530001343626902F001021343A26902F40072BC
:102540001343E26902F038021343226A02F0800268
:102550001343A26A02F40052216813430B60638B99
:1025600003F00403626A02F01002216813434B6017
:102570002268D36923F40063D361002060650123DE
:1025800084F8513010BD84F85030204602F0AAF98A
:10259000B8E70120704700002DE9F04B04460268BF
:1025A000136923F44053C1680B43136183680269C4
:1025B000134342691343C2691A430168CB6823F489
:1025C000164323F00C031343CB600268536923F4D2
:1025D000407381690B43536103683A4A934206D0C2
:1025E00002F58062934202D0FFF772FE01E0FFF72E
:1025F0007FFEE369B3F5004F30D04FF000090618B5
:1026000049EB090716EB000B47EB090C4FEACC032B
:1026100043EA5B734FEACB0293469C4663689A0099
:102620009B0F10EB0B0049EB0C01FDF7D1FD264D84
:10263000A5FB00325109642202FB1102130132335F
:10264000A5FB03235B0903F0F00202EB011203F088
:102650000F03216813448B60BDE8F08B83464FF075
:10266000000C06184CEB0C0716EB000847EB0C09A6
:102670004FEAC90343EA58734FEAC80290469946A5
:1026800062680021921841EB01031BEB08004CEB40
:102690000901FDF79DFD0C4DA5FB00325109642297
:1026A00002FB1102D3003233A5FB03235B095A005E
:1026B00002F4F87202EB011203F0070321681344DD
:1026C0008B60C9E7001001401F85EB512DE9F041F7
:1026D00004460F4616469846069D23681B6837EA4F
:1026E00003030CBF01230023B3422BD1B5F1FF3FFD
:1026F000F3D02DB1FDF78EFFA0EB0800A842ECD976
:10270000226802F10C0353E8003F23F4D0730C322B
:1027100042E800310029F3D1226802F1140353E8A2
:10272000003F23F00103143242E800310029F3D1C5
:10273000202384F83D3084F83E30002384F83C3078
:10274000032000E00020BDE8F08158B310B5044636
:1027500090F83D300BB3242384F83D302268D368D1
:1027600023F40053D3602046FFF716FF2268136955
:1027700023F4904313612268536923F02A035361C1
:102780002268D36843F40053D360002020642023E0
:1027900084F83D3084F83E3010BD80F83C3002F0C3
:1027A0004DF9D8E7012070472DE9F04182B01E466F
:1027B00090F83D30DBB2202B54D104460D469046B4
:1027C000002954D0002A54D090F83C30012B52D02C
:1027D000012380F83C3000230364212380F83D303E
:1027E000FDF718FF0746A4F82480A4F82680A36804
:1027F000B3F5805F05D04FF00008002384F83C302B
:1028000011E0236913B14FF00008F6E7A846002550
:10281000F3E738F8023B2268C3F308035360E38C04
:10282000013B9BB2E384E38C9BB273B100963B46C1
:10283000002280212046FFF749FFF0B9002DE8D0A3
:1028400015F8012B23685A60E9E700963B46002201
:1028500040212046FFF73AFF034680B9202284F842
:102860003D2000E00223184602B0BDE8F0810123BC
:10287000F9E70123F7E70223F5E70323F3E703234F
:10288000F1E72DE9F04182B01E4690F83E30DBB210
:10289000202B5BD104460D46904600295AD0002AD1
:1028A0005AD090F83C30012B58D0012380F83C30AE
:1028B00000230364222280F83E200363FDF7AAFE72
:1028C0000746A4F82C80A4F82E80A368B3F5805F97
:1028D00005D04FF00008002384F83C3016E023694F
:1028E00013B14FF00008F6E7A8460025F3E7236888
:1028F0005B68C3F3080328F8023B03E023685B68C6
:102900002B700135E38D013B9BB2E385E38D9BB2D8
:10291000BBB100963B46002220212046FFF7D6FEA1
:10292000F0B9002DE3D0A368B3F5805FE6D013B90A
:102930002369002BE2D023685B6803F07F032B70D0
:10294000DFE7202384F83E30002000E0022002B0C0
:10295000BDE8F0810120FAE70120F8E70220F6E760
:102960000320F4E782B000230193019B013301931C
:102970000E4A934214D80369002BF6DA0023019320
:10298000036943F001030361019B01330193074A8B
:10299000934208D8036913F0010FF5D1002000E03D
:1029A000032002B070470320FBE700BF400D030087
:1029B00084B010B5044603A880E80E00089B012BE4
:1029C0001FD1A36B23F48033A363E36823F4840350
:1029D00023F04003E360E36823F44013E3600F9BBC
:1029E000012B09D02046FFF7BDFF069B012B1BD012
:1029F000BDE8104004B07047E36843F48013E3601F
:102A0000F0E7E36843F04003E3602046FFF7AAFFE6
:102A10000C9B23B9A36B43F48033A363E5E7A36B5B
:102A200023F48033A363E0E7A36843F00603A360C5
:102A3000A36843F02003A360DAE7836843F001034F
:102A4000836000207047836823F0010383600020C7
:102A50007047000082B000230193890141F02001FA
:102A60000161019B01330193054A934205D8036933
:102A700013F0200FF5D1002000E0032002B07047D2
:102A8000400D030082B00023019310230361019BDA
:102A900001330193054A934205D8036913F0100FDF
:102AA000F5D1002000E0032002B07047400D030084
:102AB00070B49DF80C4064B903339D0807E000EB47
:102AC000023303F5805351F8046B1E600134AC42AD
:102AD000F5D3002070BC704770B483B006469508EB
:102AE00002F00302002305E006F58054246841F853
:102AF000044B0133AB42F7D39AB100F58050036821
:102B0000019308460024E3B2D900019BCB4000F8B2
:102B1000013B0134013A92B2002AF4D103B070BCF7
:102B200070470846FAE7426980691040704740697B
:102B300000F00100704738B50546C36823F0C04374
:102B4000C360012913D029BBC36843F08043C3602D
:102B500000240120FDF764FD01342846FFF7E7FF5C
:102B600008B1312CF5D9322C12D0002038BDC36801
:102B700043F00053C36000240120FDF751FD0134F0
:102B80002846FFF7D4FF0128EDD0312CF4D9EAE72D
:102B90000120EBE70120E9E784B038B5044605A839
:102BA00080E80E0025460023C4F8003EA36B43F4E2
:102BB0000013A363A36B23F40023A363A36B23F489
:102BC0008023A363E36B13F4807F10D0079B012B5A
:102BD00006D0D4F8003423F00403C4F800340CE029
:102BE000D4F8003443F00403C4F8003405E0D4F80A
:102BF000003423F00403C4F8003410212046FFF70A
:102C000029FF2046FFF73EFF002209E005EB4213B3
:102C10004FF0FF31C3F808150021C3F80C1501323D
:102C2000069B9342F2D80023A3614FF0FF33636108
:102C3000E36B13F4807F17D04FF40073636203F1EA
:102C40008073A3620D4BC4F80031089B1BB9A369C4
:102C500043F01003A361A269094B1343A361002051
:102C6000BDE8384004B070478023636203F5C003B9
:102C7000A362044BC4F80031E7E700BF0003E000A3
:102C8000080020A3E000400010B400F58064D0F8F4
:102C9000003423F00303C0F80034D0F8003401F00E
:102CA00003021343C0F80034012905D0022907D0DC
:102CB00000205DF8044B70474BF680336360F7E704
:102CC00041F270736360F3E730B583B004460025CA
:102CD0000195D0F840340193019B23F02E0301931A
:102CE000019B43F48073C0F840346420FDF798FCE6
:102CF000019B23F48073C4F840340A20FDF790FC54
:102D0000284603B030BD82B000230193D0F8403490
:102D10000193019B23F02E030193019B13F4805F29
:102D200001D101290CD0019B13F4805F05D021B99A
:102D3000019B23F48053C0F84034002002B0704758
:102D4000019B43F48053C0F84034ECE782B0002389
:102D50000193D0F8403401930198C0F3414002B090
:102D6000704700F58060806880B270472DE9F843B5
:102D700091461C469DF8245000EB411606F5A063D1
:102D80004FF0FF329A60032D6AD8DFE805F0025B4E
:102D9000021840F29D42DA6019F0800F09D1C26B2F
:102DA00012F4807F5ED0DA6842F06002DA600027B9
:102DB0000CE0DA6842F48072DA60002706E040F244
:102DC0009D62DA6019F0800F36D10027D0F81834F0
:102DD00001F00F01012202FA01F11943C0F81814A1
:102DE000836943F00073836119F0800F3CD14FF089
:102DF0000008FFF7ABFF9DF82030022B37D00022F0
:102E0000A30503F0FE534FEAC92909F4F04943EA48
:102E10000903AC0404F440242343BDF82810C1F393
:102E20000A010B4343EA08031343C6F80035032D98
:102E300024D03846BDE8F883DA6842F48072DA605C
:102E40000027C3E740F22522DA6019F0800F01D194
:102E50000027BBE7DA6842F4C072DA600027B5E702
:102E60000127B3E70027B1E74FF40048C1E7022884
:102E700002D04FF40032C3E70022C1E7D6F8003594
:102E800043F00053C6F80035D3E700F58060406991
:102E900080B2704730B400EB411101F5A062D1F867
:102EA0000035C3F38143D1F80045856815F0200F44
:102EB00002D0E40F002C50D03BB3022B25D0D1F828
:102EC000003543F08043C1F80035D0F8103413F4D6
:102ED0007F0F4CD1D1F8003523F00043C1F8003505
:102EE000D1F8003543F00043C1F80035D1F8003582
:102EF00023F40043C1F8003500230133B3F57A7F92
:102F00002BD811680029F8DB27E0D1F8003543F011
:102F10008043C1F80035836813F0200F1DD1C36AC8
:102F200013F47F0F1CD1D1F8003523F00043C1F812
:102F30000035D1F8003543F00043C1F80035D1F831
:102F4000003523F40043C1F8003500230133B3F505
:102F50007A7F02D811680029F8DB002030BC704766
:102F6000D1F8003543F00043C1F80035F5E7D1F85A
:102F7000003543F00043C1F80035EEE700EB4111A6
:102F8000064AC1F81025D1F8003523F0804343F0FC
:102F90000043C1F800350020704700BF00000880E2
:102FA00070B584B04B78C46B14F4807F07D00C7973
:102FB0002CB9012A13D012B94C79012C1CD04C69C0
:102FC000F4B10E89A519013DB5FBF6F5ADB2B5F525
:102FD000807F16D936020E614FF4807511E0CC79EE
:102FE0000CB1022CE7D100EB4314D4F80C5525F0BA
:102FF0007005C4F80C55DEE74978FFF7BFFF6BE0BA
:103000000125CE78002E4DD00C8904FB05F40C610F
:103010000C69C4F31204384E06EAC5452C438D7A78
:103020006D0705F0C04500EB431303F5A0662C4384
:10303000C3F8104512B1CC68C3F8144500F580659B
:10304000AC6814F0010FD3F8004524F00054C3F825
:103050000045D3F800450CBF4FF00056002634431E
:10306000C3F80045D3F800450394039C24F0804442
:103070000394CC78C4B1039C44F400440394039CAF
:1030800044F000440394039CC3F8004522BBCB7872
:1030900013BB4B6903B3CA79032A15D8DFE802F0E2
:1030A000091F091F0C61B3E7039C24F40044039437
:1030B000E5E70333C26A92B2C3F38F039A4203D2A5
:1030C000836943F020038361CC684A788B8A0021AE
:1030D00000912146FFF7ECFC002004B070BD0333E3
:1030E0002A6992B2C3F38F039A42EDD2836943F007
:1030F00080638361E8E700BF0000F81F70B50546F4
:103100000446FFF7A0FC10212846FFF7A3FC284641
:10311000FFF7B8FC00220AE004EB4211D1F80035B9
:1031200023F0802343F08043C1F8003501320F2A99
:10313000F2D90020034600E001300F2813D804EB39
:10314000401606F5A061D6F8002522F4004242F0B0
:103150004042C6F800250133B3F57A7FECD80A68FF
:10316000002AF8DBE8E74FF0FF33C5F814346B6151
:103170002846FFF762FC002070BD0020704708B5AC
:10318000212202742022427400224282828207227B
:10319000C28200F006FF08BD08B5A12202742122F8
:1031A00042740022428282820722C28200F0F9FE2B
:1031B00008BD38B50446D0F87C33D9694031FFF7F3
:1031C000EBFF054620B9D4F8D433022120469847B6
:1031D000284638BD38B50546D0F87C33DC692178FF
:1031E00079B9217BB1B9617BF1B9D5F87C33D86964
:1031F00028B101F029FED5F87C330022DA610020E5
:1032000038BD01F01DF82178284601F031F800237F
:103210002370E6E7284601F013F8217B284601F0E9
:1032200027F800232373DEE7284601F009F8617BC5
:10323000284601F01DF800236373D6E7F0B585B08A
:10324000044601230222114600F040FB012803D965
:103250000227384605B0F0BD06460146204600F07C
:103260002BFB0746002840F0A280D4F87C53502066
:1032700001F0E2FDE861D4F87C33DD69002D00F057
:10328000988050220021284601F0E6FD1A2303FB16
:10329000064393F84E3313F0800F70D169782046BF
:1032A00000F0D3FF0146287094F81C336A786889CF
:1032B00002900320019094F81D030090204600F036
:1032C000AFFF00222978204601F0ECFC00231A46CB
:1032D0000A21204600F0FAFA01286CD81A2303FBD1
:1032E000004393F84E3313F0800F50D1AB731A2381
:1032F00003FB0043B3F850332B831A2303FB004333
:1033000093F8563313F0800F49D1AB731A2303FBA4
:103310000040B0F858332B83A97B204600F095FF7E
:103320006873E97B204600F090FF287394F81C3303
:10333000AA7B697B288B02900226019694F81D03D4
:103340000090204600F06CFF94F81C33EA7B297B48
:10335000688B0290019694F81D030090204600F0BF
:103360005FFF002685F84C603246697B204601F0FD
:1033700099FC3246297B204601F094FC69E76B708A
:103380001A2303FB0646B6F850336B8186E7EB73CE
:103390001A2303FB0043B3F850336B83ADE7EB73A1
:1033A0001A2303FB0040B0F858336B83B4E70227BD
:1033B0004FE702274DE702274BE7704730B583B050
:1033C0000546D0F87C33DC6994F84D30012B03D0EE
:1033D000022B19D003B030BD606A228B90420AD90B
:1033E000637BE16901200090284600F0E0FE0223A3
:1033F00084F84D30EEE7637BE1690122009282B2EE
:10340000284600F0D4FEF2E7617B01F037FC01288A
:1034100005D00228DED1012384F84D30DAE7636A53
:10342000228B93420AD99B1A6362E3691A44E261D0
:10343000636A33B1012384F84D30CBE70023636224
:10344000F6E7002384F84D302846FFF7B6FFC1E7C2
:10345000704738B50546D0F87C33DC6994F84E30B7
:10346000032B02D0042B09D038BD237B628B216A49
:1034700000F0B3FE042384F84E30F5E7217B01F021
:10348000FDFB0128F0D1217B284601F0F1FBA36A66
:10349000834202D0628B824206D3002384F84E30EE
:1034A0002846FFF7D5FFDFE71B1AA362236A1844FB
:1034B0002062032384F84E30D6E7704738B50546BE
:1034C000D0F87C33DC6994F84C30042B04D8DFE866
:1034D00003F04C05163C4300012347E0A16CFFF7C5
:1034E0004EFE034630B1012840D0042384F84C300E
:1034F00001233BE0022384F84C30012336E004F141
:103500004001FFF749FE0346C0B9002384F84C3060
:10351000636C23F07F42A16C4B6823F07F439A4297
:1035200001D0012322E0226C0B689A4201D00123D2
:103530001CE02846FFF7C1FF012317E0012815D042
:10354000042384F84C30012310E0FFF737FF2846AE
:10355000FFF77FFF012309E0002100F0DFFD38B90C
:10356000002384F84C30012300E00023184638BDC6
:103570000123FBE7002306E003F1E00200EB8202F7
:103580000021516001330E2BF6D9002304E0C2184C
:10359000002182F81C110133B3F5007FF7D300231B
:1035A0000370437001228270C0F8C4330276402158
:1035B0008171437680F81C3380F81D2380F81F3317
:1035C00080F81E331846704708B50378DBB20B2B22
:1035D00000D008BDD0F87C33002BFAD09B69984707
:1035E000F7E770B584B004464378072B00F23081CA
:1035F000DFE813F0080048006D009E00C300E900FA
:1036000004011D01082100F00CFD18B1032821D090
:103610000125DEE094F82D23A2710125657094F850
:103620001C33217902920026019694F81D23009202
:103630008022204600F0F4FD94F81C336179A279D1
:103640000292019694F81D2300923246204600F023
:10365000E7FDBEE094F81E330133DBB284F81E337D
:10366000032B03D90D2323700125B2E06179204695
:1036700000F0FEFD2179204600F0FAFD00232370C2
:103680000125A6E0122100F0CCFC18B1032805D0DA
:1036900001259EE00223637001259AE094F81E3311
:1036A0000133DBB284F81E33032B03D90D232370BF
:1036B00001258EE06179204600F0DAFD217920466F
:1036C00000F0D6FD002363702370012581E0012105
:1036D00000F0F1FC18B1032824D0012579E0022084
:1036E00001F0F5FA012584F81C5303236370217956
:1036F000A37902930026019694F81D3300932B467C
:103700008022204600F08CFD94F81C336179A27968
:103710000292019694F81D2300923246204600F052
:103720007FFD56E00D23237000236370012550E0D8
:10373000092100F08FFC18B1032805D0012548E0CD
:1037400004236370012544E094F81E330133DBB297
:1037500084F81E33032B03D90D232370012538E091
:103760006179204600F084FD2179204600F080FD3B
:1037700000236370237001252BE0B0F83A1300F0AA
:1037800069FC18B1032805D0012522E005236370E8
:1037900001251EE094F81E330133DBB284F81E339A
:1037A000032B03D90D232370012512E061792046F4
:1037B00000F05EFD2179204600F05AFD0023637081
:1037C0002370012505E090F8341329B906234370CE
:1037D0000125284604B070BDFF2300F58E7200F06D
:1037E00052FC18B1032805D00125F2E706236370C7
:1037F0000125EEE7062363700125EAE790F835130B
:1038000019B9072343700125E3E7FF2300F58E7202
:1038100000F039FC18B1032805D00125D9E70723AA
:1038200063700125D5E7072363700125D1E790F880
:10383000361309B90025CCE7FF2300F58E7200F09E
:1038400022FC05460028C4D0032803D00125C0E788
:103850000125BEE70025BCE7D8B170B504460E4689
:1038600080F8CC230025C0F87C53C0F88053FFF7C4
:1038700081FE84F8235384F8205384F8215384F87C
:1038800022530EB1C4F8D463204601F0B9F90020E8
:1038900070BD022070470A4651B1D0F880334BB951
:1038A000591CC0F88013DE3340F8232000207047F5
:1038B000022070470220704790F83C338B4203D9B6
:1038C00080F82413002070470220704770B4064629
:1038D00000200AE01A2404FB056595F849439C4240
:1038E0001AD0FF2B18D0441CE0B2012813D805468B
:1038F0001A2404FB006494F847438C4201D0FF294A
:10390000F1D11A2404FB056494F848439442E1D0B1
:10391000FF2AE8D1DEE7FF2070BC704710B50446EF
:1039200001F0E2F90121204601F0AEF9002010BDBE
:1039300030B587B0044602238DF8173090F8213354
:10394000DBB2012B11D02378DBB20B2B7BD8DFE865
:1039500013F00F002100450009017A007D00E70007
:1039600092009C00A600B700000103230370EAE761
:1039700094F82033002B66D001232370C82001F077
:10398000A6F9204601F0C0F9002384F81C33C4F8DE
:10399000C83358E094F82333012B0FD0D4F8C83340
:1039A000B3F57A7F13D994F81F330133DBB284F86F
:1039B0001F33032B08D90D23237044E0002384F820
:1039C0001F33022323703EE0002323703BE00A33C1
:1039D000C4F8C8330A2001F07AF934E0D4F8D433BB
:1039E00013B1042120469847642001F070F9204665
:1039F00001F030F984F81D030523237000212046CF
:103A000000F023FC60718021204600F01EFC01467E
:103A1000207194F81C33A27902920025019594F844
:103A20001D2300928022204600F0FAFB94F81C33FC
:103A30006179A2790292019594F81D2300922A4699
:103A4000204600F0EDFB002007B030BD2046FFF718
:103A5000C8FD8DF817009DF81730002BF3D184F8BE
:103A6000243394F83733012B02D007232370EAE77D
:103A700008232370E7E7D4F8D433002BE3D00121E7
:103A80002046984708232370DDE794F83D1320462D
:103A900000F022FB0028D6D109232370D3E794F845
:103AA0003F3313F0200F02D10A232370CBE701210B
:103AB000204600F022FB0028C5D10A232370C2E76C
:103AC000D4F88033002BBED00023C4F87C3373B10C
:103AD000D4F87C330BB39B6820469847D0B90623B3
:103AE0002370D4F8D433032120469847ABE7184617
:103AF00003F1DE0254F82220117994F84723914211
:103B000002D00133DBB2E2E7DE3054F82030C4F8F3
:103B10007C33DDE70D23237095E70D23237092E7B7
:103B2000D4F87C3393B11B69204698478DF8170071
:103B30009DF817303BB19DF81730DBB2022B82D1D4
:103B40000D2323707FE70B2323707CE70D23237065
:103B500079E7D4F87C33002B3FF475AF5B692046DE
:103B6000984770E7002384F821332046FFF702FDD1
:103B7000D4F87C332BB1DB68204698470023C4F887
:103B80007C33D4F8D43313B105212046984794F8F8
:103B90002233DBB2012B03D0204601F0A5F852E717
:103BA000002384F822332046FFF7B8FE4BE7C0F825
:103BB000C413704708B5D0F8C4330133C0F8C43318
:103BC000FFF702FD08BD012380F82333704700236F
:103BD00080F823337047012380F82033002380F8D6
:103BE000213380F822331846704738B50446012344
:103BF00080F82133002580F8205380F8235301F00A
:103C00007BF82179204600F033FB6179204600F0F3
:103C10002FFB284638BD10B40B7803704B784370E7
:103C20008B78CC7843EA042343800B7903714B797A
:103C300043718B798371CB79C371082A16D90B7ABA
:103C40004A7A43EA022303818B7ACA7A43EA02233F
:103C500043810B7B4A7B43EA022383818B7B837303
:103C6000CB7BC3730B7C03744B7C43745DF8044BB8
:103C700070470B7803704B7843708B788370CB78E8
:103C8000C3700B7903714B7943718B798371CB7955
:103C9000C3710B7A037270470B7803704B784370D3
:103CA0008B788370CB78C3700B794A7943EA02230F
:103CB00083808B79837170474378032B00D07047E2
:103CC0000378023B9A4228BF1A4692B200239342DD
:103CD0000DD210B4C418A47801F8014B02339BB282
:103CE0009342F7D300230B705DF8044B7047002319
:103CF0000B70704730B583B00446037E013B0A2B3E
:103D000000F2E180DFE803F0061037435664808C50
:103D10009FADC400427900F1100100F011FA0223B6
:103D20002376012003B030BD417900F0A7FF0128C0
:103D300005D004281BD0022819D00120F2E7237CEB
:103D4000E28A4AB113F0800F03D1052323760120C4
:103D5000E8E703232376E5E713F0800F03D1072379
:103D600023760120DEE7092323760120DAE70B23FF
:103D700023760120D6E7D0F8C433C3810379828942
:103D8000816800F004FA042323760120CAE7017950
:103D900000F074FF012806D0052800F09680042862
:103DA00004D00120BEE709232376F5E70B23237611
:103DB0000120B7E74379828901250095816800F0E9
:103DC000D0F9D4F8C433E381062323762846A9E743
:103DD000417900F053FF012807D0052808D00228B8
:103DE0000AD004280CD001209CE70723237699E70A
:103DF0000C232376032095E705232376012091E702
:103E00000B23237602208DE703790022114600F070
:103E1000BEF9D4F8C433E38108232376012081E777
:103E2000017900F02BFF012805D0042807D00528D0
:103E30004DD0012076E70D232376002072E70B2377
:103E4000237601206EE74379012500950022114673
:103E500000F087F9D4F8C433E3810A232376284697
:103E600060E7417900F00AFF012805D0022807D059
:103E7000042809D0012055E70D232376002051E7BF
:103E80000923237601204DE70B232376012049E700
:103E9000437E0133DBB24376022B10D9D0F8D43302
:103EA00006219847002565766179204600F0E0F903
:103EB0002179204600F0DCF92570022032E701204C
:103EC0002076A0702EE701202CE703202AE70320AC
:103ED00028E703780A8813440B8003781844704756
:103EE0002DE9F04182B00C460B7803704B7843709B
:103EF0008B78C97843EA012343802379037163797E
:103F00004371A3798371E379C371237A0372092A18
:103F100044D905460923ADF806300026012E3DD8C8
:103F20006A88BDF806309A4238D90DF1060120465C
:103F3000FFF7CFFF04464378042BEFD1B0461A2099
:103F400000FB06F00830284421460230FFF791FEBE
:103F500000271A2303FB08539B7BBB421BD96A88AB
:103F6000BDF806309A4216D90DF106012046FFF73A
:103F7000B0FF04464378052BEBD101371A2000FB34
:103F800008F000EBC7000830284421460430FFF752
:103F900083FEFFB2DDE70136F6B2BFE702B0BDE84F
:103FA000F0818378012B03D0022B09D0012305E097
:103FB0008160828101230376022282701846704755
:103FC00010B50446FFF796FE034630B1032804D02F
:103FD000022806D10122A27003E00122A270002271
:103FE0002276184610BD38B5BDF810508478012CE3
:103FF00004D02A461946FFF7D4FF38BD61F07F048C
:10400000047406214174428202F47F44B4F5407F77
:1040100003D000228282C582EBE740F2094282820D
:10402000F9E7F0B583B0044600F58E750E460091B1
:104030002B464FF480720021FFF7D5FF074610B1E1
:10404000384603B0F0BD3246294604F22630FFF769
:10405000E2FDF5E7F0B583B004460E4600F11C051D
:1040600000912B464FF400720021FFF7BCFF07467A
:1040700010B1384603B0F0BD3246294604F54E7003
:10408000FFF72EFFF5E7F0B583B017461D4600F5A4
:104090008E740093234641F440720021FFF7A3FF82
:1040A000064610B1304603B0F0BD2A4639462046D8
:1040B000FFF702FEF6E708B58378012B04D0002253
:1040C0001146FFF76EFF08BD0023037405224274FA
:1040D00041828382C382F2E708B58378012B04D042
:1040E00000221146FFF75DFF08BD0023037409227B
:1040F000427441828382C382F2E708B58378012B40
:1041000004D000221146FFF74CFF08BD00230374C2
:104110000322427441828382C382F2E708B5837826
:10412000012B04D000221146FFF73BFF08BD0223FC
:10413000037401234374002343828182C382F1E725
:1041400030B585B0154600240394082302930191ED
:10415000009423462246294600F0F9FD204605B08A
:1041600030BD30B585B00C4619469DF8203090F82A
:104170001D5305B100230393029201940123009380
:1041800000231A4600F0E3FD002005B030BD30B535
:1041900085B01D46002403940292019101220092F1
:1041A0002346294600F0D3FD204605B030BD30B58A
:1041B00085B00C4619469DF8203090F81D5305B186
:1041C000002303930292019401230093022300220F
:1041D00000F0BDFD002005B030BD30B585B01D46F6
:1041E00000240394029201910122009202232946A5
:1041F00000F0ADFD204605B030BD00230A2B0CD8E1
:1042000003F1E00200EB8202526812F4004F02D088
:104210000133DBB2F2E798B270474FF6FF70704798
:1042200010B584B0BDF8204002949DF81C40019464
:104230009DF81840009400F06FFD002004B010BD00
:1042400008B500F07CFD002008BD38B504460D46D9
:10425000FFF7D3FF4FF6FF73984207D000F00F032C
:1042600045F40045E03304EB83035D60C0B238BD24
:104270000A2906D8E03100EB81014B68C3F30E0335
:104280004B600020704700002DE9F04F8DB00024F6
:104290000794089409940A940B940194564B1A6B52
:1042A00042F010021A631A6B02F010020192019A96
:1042B00002941A6B42F004021A631A6B02F00402B1
:1042C0000292029A03941A6B42F080021A631A6BEC
:1042D00002F080020392039A04941A6B42F00102E6
:1042E0001A631A6B02F001020492049A05941A6B85
:1042F00042F002021A631A6B02F002020592059A5A
:1043000006941A6B42F008021A631B6B03F0080351
:104310000693069B394E224608213046FCF7E8FA00
:10432000DFF8E090012211464846FCF7E1FADFF899
:10433000D88022464FF210014046FCF7D9FA0827F0
:1043400007970125089509940A9407A93046FCF7B8
:10435000E5F90795089509940A9407A94846FCF7DA
:10436000DDF907970227089709940A944FF0050A88
:10437000CDF82CA007A94846FCF7D0F907954FF4D3
:104380009019CDF82090099407A91D48FCF7C6F9AB
:104390000423079308940994DFF870B007A95846DE
:1043A000FCF7BCF94FF480630793089709940A94CB
:1043B000CDF82CA007A95846FCF7B0F94FF210032E
:1043C0000793089509940A9407A94046FCF7A6F9B3
:1043D000202307930894099407A94046FCF79EF907
:1043E0000797CDF82090099407A93046FCF796F975
:1043F0000DB0BDE8F08F00BF003802400010024051
:104400000000024000080240000C0240000402408C
:1044100008B50B480B4B03600B4B436000238360D4
:10442000C3604FF48042026143618361C3610362F0
:10443000FDF760F800B908BD00F09BF9FBE700BF8D
:104440007801002000540040A086010030B589B0FA
:104450000023039304930593069307930268144B78
:104460009A4201D009B030BD00250195114C236B53
:1044700043F002032363236B03F002030193019BC8
:104480004FF4107303931223049301230593042321
:10449000079303A90848FCF741F90295236C43F4FC
:1044A00000132364236C03F400130293029BD9E7E7
:1044B00000540040003802400004024008B50B4898
:1044C0000B4B03604FF40072426000238360C360B3
:1044D0000261084A42618361C3610362FDF7E4F847
:1044E00000B908BD00F045F9FBE700BFCC01002092
:1044F000003C00400077010070B58CB000230793AA
:10450000089309930A930B9306930268254B9A42EA
:1045100001D00CB070BD01230393C0230493022388
:10452000059303A8FDF7F4FE002837D1002400947A
:104530001D4B1A6C42F400421A641A6C02F40042D9
:104540000092009A01941A6B42F001021A631A6BEE
:1045500002F001020192019A02941A6B42F00402E5
:104560001A631B6B03F004030293029B102307934F
:104570000226089609940A9406250B9507A90B486C
:10458000FCF7CCF84FF4A4530793089609940A94C7
:104590000B9507A90648FCF7C1F8BAE700F0E9F85F
:1045A000C4E700BF003C0040003802400000024069
:1045B0000008024000B583B002A901F8010D4FF4D4
:1045C0007A7301220248FEF7EFF803B05DF804FBAE
:1045D0006C02002038B50546002403E0285DFFF793
:1045E000E9FF01342846FBF773FFA042F6D838BD37
:1045F00010B504460023037006E04FF47A730122DD
:1046000021460548FEF73DF920780028F5D0FFF750
:10461000D1FF204610BD00BF6C02002070B582B0F3
:1046200005460E460DF10700FFF7E2FF03788DF80F
:104630000730002209E0541CAB540DF10700FFF7CE
:10464000D7FF03788DF8073022469DF807300D2BF1
:1046500004D00A2B02D0711E9142ECD80023AB5437
:104660000D20FFF7A7FF02B070BD00000023232B31
:1046700005D8044AD25C824202D00133F7E7002316
:10468000184670472800002010B504460846FFF77A
:10469000EDFF044B03EB8000416A204600F0BCFCB8
:1046A000204610BD28000020002300E00133C25C3A
:1046B000002AFBD11846704730B58BB00D460A462C
:1046C0001E4905A800F088FC05A8FFF783FF002419
:1046D00012E001224FF400411948FCF709F9642067
:1046E000FBF79EFF00224FF400411548FCF700F94C
:1046F0006420FBF795FF01342846FFF7D5FFA04261
:1047000015DD2A5D0F49684600F066FC6846FFF734
:1047100061FF2B5D2E2BDCD001224FF400410848B5
:10472000FCF7E6F84FF49670FBF77AFFDAE74FF400
:104730002F70FBF775FF0BB030BD00BFD8560008D7
:10474000000C0240E456000830B589B0054600244C
:1047500008E0295D04A8FFF797FF01466846FFF7C8
:10476000ABFF01342846FBF7B3FEA042F1D809B0F5
:1047700030BD72B6FEE7000000B595B030220021D2
:1047800008A800F069FB00230393049305930693A4
:1047900007930193214A116C41F080511164126C0E
:1047A00002F080520192019A02931D4B1A6842F462
:1047B00080421A601B6803F480430293029B01232A
:1047C00008934FF48033099302230E934FF4800231
:1047D0000F92082210924FF4A8721192129307239D
:1047E000139308A8FDF756FA98B90F2303930223F1
:1047F0000493002305934FF4A05306934FF4805382
:104800000793052103A8FDF7ADFC20B915B05DF8AD
:1048100004FBFFF7AEFFFFF7ACFF00BF003802401C
:104820000070004000B593B0FBF7CEFEFFF7A4FF89
:10483000FFF72AFDFFF7ECFDFFF740FE00F032F82E
:1048400000F0E2F800F048F90AAC134D0FCD0FC4A8
:1048500095E8070003C422800023CDF842300AA85F
:10486000FFF7B8FE6846FBF733FE01466846FFF7E0
:10487000D5FE694605A800F0CFFB0848FFF7AAFE61
:1048800005A8FFF7A7FE0648FFF7A4FE05A8FFF757
:104890005BFF00F041F9E2E79C560008F056000883
:1048A000FC56000808B50D480D4B03604FF48273A9
:1048B000436000238360C360036143614FF400726F
:1048C0008261C3610362436283620A23C362FDF7AC
:1048D00003FE00B908BDFFF74CFFFBE71402002000
:1048E0000030014000B589B0002303930493059381
:1048F000069307930268144B9A4202D009B05DF800
:1049000004FB0021019103F584335A6C42F4805278
:104910005A645A6C02F480520192019A02911A6B05
:1049200042F001021A631B6B03F001030293029B26
:10493000E0230393022304930523079303A9034869
:10494000FBF7ECFEDAE700BF003001400000024058
:1049500000B583B0002100910C4B5A6C42F48042A8
:104960005A645A6C02F480420092009A01911A6CC7
:1049700042F080521A641B6C03F080530193019B38
:104980000720FBF761FE03B05DF804FB003802402E
:10499000FEE7FEE7FEE7FEE7FEE770477047704779
:1049A00008B5FBF72BFE08BD08B50248FCF7B6FCBE
:1049B00008BD00BF8806002008B503460B4A1268F0
:1049C00042B10A4A106803446A46934206D8074A2D
:1049D000136008BD054A06491160F2E700F002FACB
:1049E0000C2303604FF0FF30F3E700BF60010020AD
:1049F00090090020034AD2F8883043F47003C2F8CB
:104A00008830704700ED00E008B50A480A4B0360A3
:104A10004FF4E133436000238360C36003610C22E1
:104A200042618361C361FDF790FE00B908BDFFF7E5
:104A3000A0FEFBE76C0200200044004000B589B0F6
:104A40000023039304930593069307930268154B81
:104A50009A4202D009B05DF804FB0021019103F5F0
:104A6000FA331A6C42F400321A641A6C02F40032FF
:104A70000192019A02911A6B42F001021A631B6BB8
:104A800003F001030293029B0C230393022304937C
:104A9000032306930723079303A90348FBF73EFE6E
:104AA000D8E700BF004400400000024004290CD0B9
:104AB000052902D0022904D07047064B03221A7040
:104AC0007047044B02221A707047024B01221A7081
:104AD000F2E700BF6801002008B501220B490C482D
:104AE000FEF7BAFE48B90B490948FEF7D4FE38B9BB
:104AF0000748FEF713FF30B908BDFFF73AFEF2E7AB
:104B0000FFF737FEF4E7FFF734FEF5E7AD4A00089C
:104B1000B00200200800002008B50248FEF708FF98
:104B200008BD00BFB0020020F0B589B00023039398
:104B300004930593069307930368B3F1A04F01D044
:104B400009B0F0BD002501951B4C236B43F0010318
:104B50002363236B03F001030193019B08AE4FF421
:104B6000007346F8143D154F31463846FBF7D6FD25
:104B70004FF4E053039302230493059506950A230B
:104B8000079331463846FBF7C9FD636B43F080035A
:104B900063630295636C43F480436364636C03F462
:104BA00080430293029B2A4629464320FBF75EFD81
:104BB0004320FBF78FFDC3E70038024000000240AE
:104BC00008B5D0F80003FEF7F5FF08BD08B5D0F82A
:104BD0000003FFF700F808BD08B5D0F80003FFF7A1
:104BE00004F808BD704708B5D0F80003FEF7EBFFE6
:104BF00008BD08B5D0F80003FEF7E9FF08BD0000C6
:104C000090F8CC33012B01D00020704710B504463A
:104C10000F48C0F80043C4F8D0034FF0A04303602E
:104C2000082383600123C3600023036102228261A1
:104C3000C361FBF708FF40B90548FCF751FC01468A
:104C40002046FEF7B4FF002010BDFFF792FDF3E70A
:104C50008806002008B5D0F8D003FCF746FC18B150
:104C6000022803D0012008BD0020FCE70220FAE75B
:104C700008B5D0F8D003FCF72EFC08BD08B5D0F875
:104C8000D003FCF722FC08BD08B590F8CC33012B0B
:104C900004D0C820FBF7C4FC002008BD084600F083
:104CA0006BF8F6E7D0F8D0032C2303FB010393F84D
:104CB0003B3033B92C2303FB010181F85520002040
:104CC00070472C2303FB010181F85420F7E708B556
:104CD000FBF7A6FC08BD18B1022803D002207047DC
:104CE000002070470120704708B5D0F8D003FCF7CA
:104CF000C0FBFFF7F0FF08BD08B5D0F8D003FCF704
:104D0000CDFBFFF7E8FF08BD08B5D0F8D003FCF7EE
:104D1000D7FBFFF7E0FF08BD10B584B0D0F8D00393
:104D2000BDF8204002949DF81C4001949DF8184065
:104D30000094FBF72FFEFFF7CEFF04B010BD08B5BF
:104D4000D0F8D003FBF76DFEFFF7C5FF08BD10B527
:104D500084B0D0F8D0039DF824400394BDF82040DF
:104D60000294079C01949DF818400094FBF7B5FE4F
:104D7000FFF7B1FF04B010BD08B5024600B1012233
:104D800001210248FBF7B4FD08BD00BF0008024046
:104D9000DFF834D00D480E490E4A002302E0D45803
:104DA000C4500433C4188C42F9D30B4A0B4C002373
:104DB00001E013600432A242FBD3FFF71BFE00F0B8
:104DC00017F8FFF72FFD70470000022000000020B9
:104DD00044010020205800084401002090090020D0
:104DE000FEE70000014B1868704700BFE00000209C
:104DF00070B50D4E0D4CA41BA4100025A54209D181
:104E00000B4E0C4C00F03EFCA41BA4100025A54248
:104E100005D170BD56F8253098470135EEE756F8B4
:104E2000253098470135F2E718580008185800084F
:104E3000185800081C580008024B0146186800F07A
:104E400061B800BFE0000020024B0146186800F086
:104E50000BB800BFE000002002440346934200D19B
:104E6000704703F8011BF9E738B50546002945D01E
:104E700051F8043C0C1F002BB8BFE41800F0D4F824
:104E80001F4A1368104633B9636014602846BDE8B2
:104E9000384000F0CAB8A3420CD921686218934286
:104EA00004BF1A685B68636004BF52182260046024
:104EB000ECE713465A680AB1A242FAD919685818A1
:104EC000A0420BD120680144581882421960DDD1FC
:104ED000106852685A6001441960D7E702D90C2360
:104EE0002B60D3E7206821188A4204BF11685268FA
:104EF000626004BF091821605C60C7E738BD00BF6D
:104F00006C01002070B5CD1C25F0030508350C2D73
:104F100038BF0C25002D064601DBA94203D90C231E
:104F20003360002070BD00F07FF8214A14682146EC
:104F300091B9204C23681BB9304600F03DF8206041
:104F40002946304600F038F8431C24D10C23336046
:104F5000304600F06AF8E4E70B685B1B18D40B2BB3
:104F60000FD90B60CD50CC18304600F05EF804F13C
:104F70000B00231D20F00700C31AD3D05A42E25081
:104F8000D0E78C424B6816BF636013600C46EBE7BA
:104F90000C464968CCE7C41C24F00304A04205D0A9
:104FA000211A304600F008F80130CFD02560DBE749
:104FB0006C0100207001002038B5064C0023054626
:104FC00008462360FFF7F8FC431C02D1236803B1B5
:104FD0002B6038BD8C0900200EB400B59CB01DAB11
:104FE000029006906FF00041094807910491094929
:104FF00053F8042B05910068019302A900F070F8A2
:10500000029B00221A701CB05DF804EB03B07047DD
:10501000E00000200802FFFF034611F8012B03F80F
:10502000012B002AF9D17047704770472DE9F047EE
:105030008E689E4282460C469046994637D88A89A9
:1050400012F4906F31D0256809696F1A65690223DF
:1050500005EB450595FBF3F509F101033B449D4242
:1050600038BF1D46530530D52946FFF74BFF06468E
:1050700050B90C23CAF80030A38943F04003A38140
:105080004FF0FF30BDE8F0873A46216900F0A8FAFA
:10509000A38923F4906343F08003A38126616561B3
:1050A0003E44ED1B2660A5604E464E4500D94E4657
:1050B00032464146206800F09EFAA3689B1BA3601D
:1050C00023681E4426600020DCE72A4600F0ACFA84
:1050D00006460028E2D121695046FFF7C5FEC8E721
:1050E0002DE9F04F1D468B891F069DB080460C466A
:1050F00016460FD50B696BB94021FFF703FF2060FF
:10510000206128B90C23C8F800304FF0FF30C8E008
:10511000402363610023099320238DF82930302335
:105120008DF82A3003954FF0010B37463D4615F8B0
:10513000013B0BB1252B3ED1B7EB060A0BD05346F2
:10514000324621464046FFF771FF013000F0A4804F
:10515000099B534409933B78002B00F09D8000236A
:105160004FF0FF32CDE90523049307938DF85330B8
:105170001A932F46052217F8011B5048FBF7B0F988
:10518000049BD0B9D90644BF20228DF853201A07BA
:1051900044BF2B228DF853202A782A2A15D0079A4B
:1051A0002F4600200A25394611F8013B303B092BD8
:1051B0004DD9B8B10FE02F46B8E7404A801A0BFA34
:1051C00000F0184304903D46D3E7039A111D12687E
:1051D0000391002A01DB079204E0524243F00203EC
:1051E000079204933B782E2B0CD17B782A2B33D15A
:1051F000039B1A1D1B680392002BB8BF4FF0FF33AF
:10520000023705932E4D397803222846FBF768F9BB
:1052100038B14023401B03FA00F0049B03430137DD
:105220000493397827488DF8281006227E1CFBF756
:1052300057F9002838D0244B13BB039B073323F0C6
:10524000070308330393099B4B4409936DE705FB60
:10525000023201200F46A6E70023013705931946C5
:105260000A25384610F8012B303A092A03D9002BB9
:10527000C8D00591C6E705FB012101230746F0E7E9
:1052800003AB00932246114B04A94046AFF30080C4
:10529000B0F1FF3F8146D6D1A3895B063FF535AF1C
:1052A00009981DB0BDE8F08F03AB00932246074B71
:1052B00004A9404600F082F8EAE700BFDC57000886
:1052C000E2570008E6570008000000002D500008D3
:1052D0002DE9F04791461F468A680B69DDF820806A
:1052E0009342B8BF1346C9F8003091F843200646F0
:1052F0000C4612B10133C9F800302368990642BF49
:10530000D9F800300233C9F80030256815F00605D9
:1053100007D104F1190AE368D9F800209B1AAB42BF
:1053200028DC94F843302268003318BF012392062A
:105330002DD404F1430239463046C047013020D015
:105340002368E568D9F8002003F00603042B08BFA2
:10535000AD1AA36822690CBF25EAE57500259342C2
:10536000C4BF9B1AED184FF000091A344D451AD1ED
:10537000002008E00123524639463046C04701303C
:1053800003D14FF0FF30BDE8F0870135C3E7E118E6
:105390005A1C302081F84300224494F8451082F8CA
:1053A00043100233C5E70123224639463046C04741
:1053B0000130E6D009F10109D8E700002DE9F043FA
:1053C00001F1430C0C46097E85B06E29174606464E
:1053D00098460C9A00F0B38022D8632936D00AD8B8
:1053E000002900F0B980582900F0838004F14205BB
:1053F00084F8421032E0642901D06929F6D120688E
:105400001368050603F104012AD51B681160002BFF
:1054100003DA2D225B4284F843206F480A2239E0E8
:10542000732900F09D8008D86F2920D07029DDD124
:10543000236843F02003236003E0752917D07829FF
:10544000D4D1782384F84530644855E01368191D99
:105450001B68116004F1420584F8423001238CE09E
:105460001B68116010F0400F18BF1BB2CFE7136824
:105470002568181D1060280601D51B6802E0680623
:10548000FBD51B8854486F2914BF0A22082200212B
:1054900084F843106568A560002DC0F295802168EE
:1054A00021F004012160002B3DD1002D40F08E80C1
:1054B0006546082A0BD12368DB0708D52369626893
:1054C0009A42DEBF302305F8013C05F1FF35ACEB15
:1054D00005032361CDF800803B4603AA21463046F0
:1054E000FFF7F6FE01304DD14FF0FF3005B0BDE8BB
:1054F000F083394884F84510136821681D1D1B6826
:1055000015600A060BD5CA0744BF41F0200121608F
:105510001BB9226822F0200222601022B7E74D0654
:1055200048BF9BB2EFE76546B3FBF2F102FB1133D4
:10553000C35C05F8013D0B460029F5D1B9E71368B6
:1055400025686169181D106028061B6801D519605F
:1055500002E06A06FBD51980002323616546B9E79E
:105560001368191D11601D68626800212846FAF74A
:10557000B7FF08B1401B606063682361002384F8B3
:105580004330A7E723692A4639463046C0470130F1
:10559000AAD023689B0713D4E068039B9842B8BF46
:1055A0001846A3E701234A4639463046C047013032
:1055B0009AD00135E368039A9B1AAB42F2DCEBE721
:1055C000002504F11909F5E7002BACD1037884F824
:1055D000423004F142056CE7ED570008FE57000821
:1055E00010B5431E0A44914200D110BD11F8014B81
:1055F00003F8014FF7E7884210B501EB020307D823
:10560000421E99420AD011F8014B02F8014FF8E707
:105610008342F5D98118D21AD34200D110BD13F8B4
:10562000014D01F8014DF7E7F8B5074614460E465F
:1056300021B91146BDE8F840FFF764BC22B9FFF775
:1056400013FC25462846F8BD00F014F8A0420FD2FE
:1056500021463846FFF756FC05460028F2D0314671
:105660002246FFF7BDFF31463846FFF7FDFBE9E76D
:105670003546E7E751F8043C181F002BBCBF0B5818
:10568000C0187047F8B500BFF8BC08BC9E4670470C
:0C569000F8B500BFF8BC08BC9E4670478F
:10569C000A6563726976657A20766F747265206D1F
:1056AC00657373616765203A2000000000000000FC
:1056BC0000000000000000000102030406070809B6
:1056CC0000000000010203044344430074726F7530
:1056DC0076652025730A0D006D6F72736520256346
:1056EC000A0D00007265706F6E7365203A20000021
:1056FC000A0000002E5F00005F2E2E2E000000001E
:10570C005F2E5F2E000000005F2E2E002E2E5F2ECF
:10571C00000000005F5F2E002E2E2E2E00000000D9
:10572C002E2E00002E5F5F5F000000005F2E5F00DA
:10573C002E5F2E2E000000005F5F00005F2E000029
:10574C005F5F5F002E5F5F2E000000005F5F2E5FCB
:10575C00000000002E2E2E002E2E5F002E2E2E5F0F
:10576C00000000002E5F5F005F2E2E5F0000000027
:10577C005F2E5F5F000000005F5F2E2E00000000B8
:10578C005F5F5F5F5F0000002E5F5F5F5F00000088
:10579C002E2E5F5F5F0000002E2E2E5F5F0000003C
:1057AC002E2E2E2E5F0000002E2E2E2E2E000000F0
:1057BC005F2E2E2E2E0000005F5F2E2E2E0000007E
:1057CC005F5F5F2E2E0000005F5F5F5F2E000000AA
:1057DC00232D302B2000686C4C00656667454647CE
:1057EC000030313233343536373839414243444551
:1057FC0046003031323334353637383961626364C0
:04580C0065660000CD
:08581000F0A9FF7F0100000078
:04581800B5010008CE
:04581C0091010008EE
:105820000100000010000000D45600080200000033
:105830003D320008D5310008B3310008BD340008FE
:105840007B31000800000000616263646566676880
:10585000696A6B6C6D6E6F70717273747576777840
:10586000797A3031323334353637383900570008D9
:10587000045700080C57000814570008B8570008D0
:105880001857000820570008245700082C57000814
:1058900030570008385700083C57000844570008A4
:1058A000485700084C570008505700085857000840
:1058B0005057000860570008B057000864570008A8
:1058C0006857000870570008745700087C57000894
:1058D000845700088C570008945700089C5700080C
:1058E000A4570008AC570008B4570008BC5700087C
:1058F000C4570008CC570008D45700080024F4000F
:10590000E400002000000000000000000000000093
:105910000000000000000000000000000000000087
:105920000000000000000000000000000000000077
:105930000000000000000000000000000000000067
:105940000000000000000000000000000000000057
:105950000000000000000000000000000000000047
:045960000000000043
:0400000508004D9111
:00000001FF
